:020000040800F2
:10000000681D0020A1010008A30B0008310B0008A7
:10001000A10B0008030300082911000800000000DC
:100020000000000000000000000000009F0F00081A
:1000300005030008000000009D0F0008A10F000844
:10004000BB010008BB010008BB010008BB010008A0
:10005000BB010008BB010008BB010008BB01000890
:10006000BB010008BB010008BB010008BB01000880
:10007000BB010008BB010008BB010008BB01000870
:10008000BB010008BB010008BB010008BB01000860
:10009000BB010008BB010008BB010008BB01000850
:1000A000BB010008BB010008BB010008BB01000840
:1000B000BB010008BB010008BB010008BB01000830
:1000C000BB010008BB010008BB010008BB01000820
:1000D000BB010008BB010008BB010008BB01000810
:1000E000BB010008BB010008BB010008BB01000800
:1000F000BB010008BB010008BB010008BB010008F0
:10010000BB010008BB010008BB010008BB010008DF
:10011000BB010008BB010008BB010008BB010008CF
:10012000BB010008BB010008BB010008BB010008BF
:10013000BB010008BB010008BB010008BB010008AF
:10014000BB010008BB010008BB010008BB0100089F
:10015000BB010008BB010008BB010008BB0100088F
:10016000BB010008BB010008BB010008BB0100087F
:10017000BB010008BB010008BB0100080000000033
:10018000BB010008BB010008DFF810D000F07CF8CC
:100190000048004769110008AFF30080681D002087
:1001A0000648804706480047FEE7FEE7FEE7FEE711
:1001B000FEE7FEE7FEE7FEE7FEE7FEE73910000890
:1001C000890100082DE9F05F0546002092469B4614
:1001D00088460646814640241BE02846414647465D
:1001E000224600F041F853465A46C01A914110D3B6
:1001F00011461846224600F028F82D1A67EB010830
:100200004F4622460120002100F01FF817EB00099D
:100210004E41201EA4F10104DFDC484631462A4647
:100220004346BDE8F09FD2B201E000F8012B491E21
:10023000FBD270470022F6E710B513460A46044683
:100240001946FFF7F0FF204610BD202A04DB203AB4
:1002500000FA02F1002070479140C2F1200320FA19
:1002600003F3194390407047202A04DB203A21FA17
:1002700002F00021704721FA02F3D040C2F12002BF
:100280009140084319467047064C074D06E0E06868
:1002900040F0010394E8070098471034AC42F6D3CD
:1002A000FFF776FF502900087029000870B58C18F8
:1002B00010F8015B15F0070301D110F8013B2A117A
:1002C00006D110F8012B03E010F8016B01F8016B67
:1002D0005B1EF9D12B0705D40023521E0DD401F863
:1002E000013BFAE710F8013BCB1A921C03E013F82C
:1002F000015B01F8015B521EF9D5A142D8D3002061
:1003000070BDFEE77047000070B5044600F0F0F8DD
:100310000546601C02D004480078044400F0E8F868
:10032000401BA042FAD370BDD81400202DE9F84F2D
:1003300000224FF0010803254FF00F0E0B6808FA5A
:1003400002F42340A3426ED14E68012E05D0022E46
:1003500003D0112E01D0122E12D186684FEA420C22
:1003600005FA0CF7BE43CF6807FA0CF737438760EE
:100370004668A6430C79C4F30014944034434460A7
:10038000C668570005FA07FC8C6826EA0C06BC40D4
:100390003443C4604C68022C01D0122C13D1D40811
:1003A00000EB8404A346D4F8209054074FEAD46AA3
:1003B0000EFA0AF629EA06090E6906FA0AF646EA6C
:1003C0000906CBF8206006680C7926EA0C0604F0D2
:1003D0000304BC40344304604C68E40065D5364CEB
:1003E000266846F480462660246822F0030604F45A
:1003F00080440094314C3444A446D4F8084896070D
:10040000370F0EFA07F6B4432D4EB04201D1002645
:1004100024E02C4EB04201D101261FE02A4EB0420A
:1004200002D102261AE040E0284EB04201D1032654
:1004300014E0274EB04201D104260FE0254EB04211
:1004400001D105260AE0244EB04201D1062605E07E
:10045000224EB04201D1072600E00826BE402643C6
:10046000CCF808681E4E34684F689C43FF0300D5E3
:100470001C4334601A4C241D26684F689E43BF03FA
:1004800000D51E432660164E083634684F689C43DC
:10049000FF0200D51C433460114E0C3634684F689F
:1004A0009C43BF0200D51C433460521C102AFFF449
:1004B00045AFBDE8F88F00004438024000300140ED
:1004C000000002400004024000080240000C02400C
:1004D000001002400014024000180240001C0240BC
:1004E000003C01400AB1816170470904FBE700004C
:1004F0000148806870470000D814002002488168D5
:100500000278114481607047D81400200B4810B560
:10051000016841F400710160016841F4806101608B
:10052000016841F480710160032000F061F800204F
:1005300000F006F800F024F8002010BD003C024056
:1005400070B50D4D04464FF47A712878B1FBF0F088
:100550000A490968B1FBF0F000F0D6FA48B9102C4E
:1005600007D200222146501E00F022F800206C60C5
:1005700070BD012070BD0000D8140020E4140020DC
:100580000A4808B5016841F480410160006800F440
:10059000804000900548001F016841F080510160D3
:1005A000006800F08050009008BD00004438024010
:1005B000F0B40E4B1B680C46C3F30223C3F10705CE
:1005C000042D00D90425191D072901D2002300E0BC
:1005D000DB1E012606FA05F1491E214099409E4086
:1005E000761E16403143F0BC00F09FBD0CED00E0DC
:1005F000064900F0070208684FF6FF03184040EA7A
:100600000220034A10430860704700000CED00E030
:100610000000FA052DE9F0470E46050065D0DFF829
:100620001481D8F80000F7B200F00F00B04207D2F2
:1006300088F80070D8F8000000F00F00B04254D1E4
:1006400028683D4C810712D5400703D5206840F447
:10065000E05020602878000703D5206840F460400F
:1006600020602068A96820F0F00008432060287806
:10067000C0072DD0304968680839012812D00228F7
:1006800013D0032811D00968890700292DDA2168C1
:1006900021F0030101432160FFF72AFF814641F267
:1006A000883A0EE009688903EFE709688901ECE7F9
:1006B000FFF71EFFA0EB0901514502D90320BDE859
:1006C000F0872068696800F00C00B0EB810FEFD173
:1006D000D8F80010404601F00F01B14207D9077069
:1006E000006800F00F00B04201D00120E7E7287851
:1006F000400705D52068E96820F4E05008432060F1
:100700002878000706D52068296920F4604040EA6F
:10071000C100206000F018F82168084AC1F30311F5
:10072000515CC8400649086006480068FFF708FFAA
:100730000020C4E7003C0240083802403E2900087F
:10074000E4140020DC140020154810B5006810F0F7
:100750000C02144813D01449042A0FD0082A0ED1D1
:100760000F4C241F2268236802F03F025B0207D56A
:100770002068C0F38810A0FB010106E0084610BD08
:100780002168C1F38811A1FB00010023FFF71AFDC6
:100790002168C1F30141491C4900B0FBF1F010BDD3
:1007A000083802400024F40040787D012DE9F84F1C
:1007B00004006ED02078DFF83C93C007A9F104054F
:1007C0004AD009F104000168C1F38101012908D070
:1007D0000068C0F3810002280AD1D9F80000400265
:1007E00006D52868800337D560680028E1D033E05B
:1007F0006068B0F5803F10D0B0F5A02F286810D009
:1008000020F480302860286820F480202860606808
:10081000A8B1FFF76DFE06460DE0286840F4803071
:10082000F4E740F480202860F7E700BFFFF760FEA0
:10083000801B642873D828688003F7D50CE0FFF785
:1008400057FE064605E000BFFFF752FE801B6428F6
:10085000F0D828688003F7D42078DFF89C828007DE
:100860004FF0000A3ED5A348001D016811F00C0F9F
:1008700008D00068C0F3810002280BD1D9F800002D
:10088000400207D42868800716D5E068012800D107
:1008900012E02BE1E068B8B10120C8F80000FFF7D2
:1008A00027FE064605E000BFFFF722FE801B022858
:1008B000C0D828688007F7D52868216920F0F8009B
:1008C00040EAC10028600DE0C8F800A0FFF710FE64
:1008D000064604E0FFF70CFE801B02281FD828689C
:1008E0008007F7D42078000722D5824E83486169BB
:1008F000703671B101210160FFF7FAFD074604E08F
:10090000FFF7F6FDC01B022809D830688007F7D52D
:100910000EE0C0F800A0FFF7EBFD074605E082E01F
:10092000FFF7E6FDC01B02287DD830688007F7D4AA
:100930002078400768D5DFF8BCB100270BF13C0BED
:10094000DBF80000C0000BD4DBF8001041F0805150
:10095000CBF80010DBF80000012700F08050009079
:10096000674E3068C00510D4306840F48070306045
:10097000FFF7BEFD009005E0FFF7BAFD0099401AB1
:10098000022850D83068C005F6D55A4EA0686C369B
:1009900001280FD00528306810D020F00100306009
:1009A000306820F004003060A068B8B1FFF7A0FD07
:1009B00000900FE0306840F00100F4E740F00400E0
:1009C0003060F7E7FFF794FD0099411A41F2883053
:1009D000814266D830688007F4D50EE0FFF788FDC5
:1009E000009007E0FFF784FD0099411A41F288303A
:1009F000814256D830688007F4D42FB1DBF800105C
:100A000021F08051CBF80010A069C8B33949091D05
:100A10000968C1F3810102294AD00228504607D053
:100A2000C8F8600000E03CE0FFF762FD04463BE0F0
:100A30004746C8F86000FFF75BFD064605E000BFCB
:100A4000FFF756FD801B02282BD828688001F7D4B9
:100A5000D4E907010843A16A2A4A490802EB014187
:100A6000626A41EA8211084394F82C1040EA01615D
:100A7000C9F8001001203866FFF73AFD044606E089
:100A800036E000BFFFF734FD001B022809D82868B4
:100A90008001F7D52CE000BFFFF72AFD001B0228DC
:100AA00002D90320BDE8F88F28688001F4D41FE044
:100AB0000128F7D0D9F80000E26900F480019142E2
:100AC00014D1226A00F03F0191420FD147F6C07164
:100AD000626A0140914209D1A26A00F44031914218
:100AE00004D1E16A00F07060884201D00120D9E7AA
:100AF0000020D7E70438024000004742800E4742FA
:100B0000007000400000FFFF10B5401EB0F1807F74
:100B100001D3012010BD4FF0E02460610F21601768
:100B200000F003FB0020A06107202061002010BD21
:100B3000FEE7000010B586B014216846FFF77AFB87
:100B40001548016841F080010160016801F08001F1
:100B50000591016841F001010160016801F00101A6
:100B60000591016841F00801016000680B4C00F03C
:100B70000800059000227C212046FFF7B3FC7C2072
:100B80000121CDE900010220CDE90210694620468D
:100B9000FFF7CCFB06B010BD30380240000C02401D
:100BA000FEE7FEE730B40021084B0A465FF0000084
:100BB00003EBC004401CC0B262548028F8D3491C27
:100BC000C9B20829F2D330BC00F0A6B8E81400205E
:100BD000CA0801F0070301219940044B03EBC0034D
:100BE000985C61EA0000C04398547047E814002004
:100BF000CA0801F0070301219940034B03EBC00031
:100C0000835C0B4383547047E814002010B5414CBB
:100C1000002220212046FFF765FCC820FFF774FB67
:100C2000012220212046FFF75DFC0021AE2000F0CC
:100C30007DF90021084600F079F90021102000F02C
:100C400075F90021402000F071F90021812000F0A9
:100C50006DF90021CF2000F069F90021A12000F0FA
:100C600065F90021C82000F061F90021A62000F0FC
:100C70005DF90021A82000F059F900213F2000F083
:100C800055F90021D32000F051F90021084600F069
:100C90004DF90021D52000F049F90021802000F015
:100CA00045F90021D92000F041F90021F12000F0A0
:100CB0003DF90021DA2000F039F90021122000F07E
:100CC00035F90021DB2000F031F90021402000F04F
:100CD0002DF90021202000F029F90021022000F048
:100CE00025F900218D2000F021F90021142000F0C9
:100CF0001DF90021A42000F019F90021A62000F020
:100D000015F90021AF2000F011F9BDE81040FFF700
:100D100049BF0000000C024070B5114E002400BF16
:100D200004F1B000C0B2002100F000F90021084633
:100D300000F0FCF80021102000F0F8F85FF000054A
:100D400006EBC5000121005D00F0F0F86D1CEDB26E
:100D5000802DF5D3641CE4B2082CE1D370BD0000F3
:100D6000E81400202DE9FF4F1D460C468946580720
:100D700000D0012000EBD500690810FB01F0203AFB
:100D800000F0FF0A02F0FF0B002637E00C2D12D016
:100D9000102D16D0182D33D11A490BEBCB0001EBD7
:100DA00080004FF00008875D2146380600980CD57A
:100DB000FFF71EFF0BE014480BEB4B0100EB81002B
:100DC000EFE7124901EB0B10EBE7FFF701FF7806A5
:100DD000641C070EE4B2A4EB0900A84205D10098F8
:100DE0004C46401CC0B2009006E008F1010000F043
:100DF000FF08B8F1080FD7D3761CF6B25645C5D315
:100E0000BDE8FF8FE21B00087E110008F215000804
:100E10002DE9FF4F83B081460020CDE901091C4632
:100E200088468B464FEAD30A52E0059810FB04F13E
:100E3000019800EBD100C0B200900198401CC0B2F4
:100E40000025019042E0102C12D0182C15D0202C37
:100E50001AD0402C41D12249009801EB40200027B4
:100E6000465D4146F007484614D0FFF7C1FE13E047
:100E70001C49009801EB0010F1E700981A4900EBBB
:100E8000C00001EBC000EAE717490098D83101EB38
:100E9000C010E4E7FFF79CFE7F1C760808F1010014
:100EA000FFB200F0FF08082FDBD309F1010002991F
:100EB00000F0FF09A9EB0100A04204D10BF10800EA
:100EC000894600F0FF0B6D1CD846EDB2A542BAD39F
:100ED000BAF1010101F0FF0AA7D207B0BDE8F08F17
:100EE000D804002000000020000200202DE9F0417D
:100EF0001E46154688460446C3F180070FE0334678
:100F000041462046FFF72EFF04EB5600C4B2A7422D
:100F100004DA08F10200002400F0FF086D1C2A78B2
:100F2000A2F120005E28EAD9BDE8F08170B51A4E22
:100F3000054609B1012200E0002210213046FFF7EA
:100F4000D1FA002240213046FFF7CCFA00240022DB
:100F500008213046FFF7C6FA280601D5012200E035
:100F6000002204213046FFF7BDFA01220821304655
:100F7000FFF7B8FA6806641C050EE4B2082CE6D345
:100F8000012240213046FFF7ADFA3046BDE87040FF
:100F900001221021FFF7A6BA000C024070477047EB
:100FA000FFF7ACBA30B593B030216846FFF742F98D
:100FB00014210CA8FFF73EF91D480025016841F0F7
:100FC00080510160006800F080501190194801685C
:100FD00041F4804101600068022400F480401190D7
:100FE0000120039010200490009406940820CDE97D
:100FF0000750A820CDE9090404200B906846FFF7AC
:10100000D5FB08B172B6FEE70CA90F2081E83100CC
:101010004FF4A0500F904FF48050109005210CA871
:10102000FFF7F8FA002801D072B6FEE713B030BD22
:1010300040380240007000400548016841F47001EA
:10104000016003494FF0006080390860704700007C
:1010500088ED00E0002210B5102311461046FFF77E
:10106000D7FE1023012200211846FFF7D1FE1023DE
:10107000022200212020FFF7CBFE102303220021B3
:101080003020FFF7C5FE1023042200214020FFF787
:10109000BFFE1023052200215020FFF7B9FE1023C8
:1010A000062200216020FFF7B3FE0C231CA21021B2
:1010B0003220FFF71BFF1023082220210020FFF71A
:1010C000A7FE1023092220211846FFF7A1FE2021A8
:1010D00010230A220846FFF79BFE10230B22202133
:1010E0003020FFF795FE10230C2220214020FFF72F
:1010F0008FFE10230D2220215020FFF789FE1023A0
:101100000E2220216020FFF783FE10230F222021D2
:101110007020FFF77DFEBDE81040FFF7FDBD000029
:1011200032304B485A000000FEE70907090E00283C
:1011300004DB00F1E02080F80014704700F00F009D
:1011400000F1E02080F8141D704702E008C8121F6B
:1011500008C1002AFAD170477047002001E001C1A0
:10116000121F002AFBD17047FFF7D0F9FFF71AFFD3
:10117000FFF7E0FCFFF74AFDFFF76CFFFCE700001C
:1011800000000000000000000000000000003F40E0
:10119000000000000000000030004000300040006F
:1011A000000009000BC03D000BC03D00090018C045
:1011B00024407FE0224031800000180024C01B0042
:1011C0000D803240018003801C4027401C80074076
:1011D000004010006000000000000000000000005F
:1011E000000000001F8020404020000040202040E0
:1011F0001F8000000000090006001F800600090093
:101200000000040004003F800400040000000010FF
:101210000060000000000000000004000400040062
:101220000400040000000000004000000000000076
:101230000000002001C006003800400000001F80B0
:101240002040204020401F800000000010403FC090
:1012500000400000000018C02140224024401840F7
:10126000000010802040244024401B800000020029
:101270000D0011003FC0014000003C80244024408C
:101280002440238000001F802440244034400380F9
:1012900000003000200027C03800200000001B8024
:1012A0002440244024401B8000001C0022C0224017
:1012B00022401F80000000000000084000000000E5
:1012C00000000000000004600000000000000000BA
:1012D00004000A00110020804040090009000900B4
:1012E00009000900000000004040208011000A00B1
:1012F00004001800200023402400180000001F8074
:101300002040274029401F400000004007C039000E
:101310000F0001C0004020403FC0244024401B80FB
:1013200000001F80204020402040308000002040EE
:101330003FC0204020401F80000020403FC024408C
:101340002E4030C0000020403FC024402E0030001E
:1013500000000F0010802040224033800200204017
:101360003FC0040004003FC02040204020403FC058
:101370002040204000000060202020203FC02000AE
:10138000200020403FC024400B0030C020402040BF
:101390003FC020400040004000C03FC03C0003C0B0
:1013A0003C003FC0000020403FC00C4023003FC035
:1013B00020001F802040204020401F80000020404F
:1013C0003FC024402400180000001F80214021401D
:1013D00020E01FA0000020403FC02440260019C08C
:1013E000004018C0244024402240318000003000DA
:1013F00020403FC020403000000020003F800040DF
:1014000000403F80200020003E0001C0070038005F
:101410002000380007C03C0007C038000000204012
:1014200039C0060039C0204000002000384007C005
:10143000384020000000304021C02640384020C005
:101440000000000000007FE040204020000000007D
:1014500070000C000380004000000000402040208D
:101460007FE000000000000020004000200000009D
:10147000000000100010001000100010001000000C
:101480000000400000000000000000000280054055
:10149000054003C0004020003FC0044004400380DA
:1014A00000000000038004400440064000000000EB
:1014B0000380044024403FC00040000003800540FA
:1014C000054003400000000004401FC024402440A9
:1014D0002000000002E00550055006500420204086
:1014E0003FC00440040003C000400000044027C087
:1014F00000400000000000100010041027E0000071
:10150000000020403FC00140070004C004402040CC
:1015100020403FC000400040000007C0040007C05A
:10152000040003C00000044007C00440040003C0DE
:1015300000400000038004400440038000000410C9
:1015400007F00450044003800000000003800440C2
:10155000045007F00010044007C0024004000400DB
:101560000000000006400540054004C000000000E7
:1015700004001F8004400040000004000780004079
:10158000044007C000400400070004C001800600BA
:101590000400060001C0070001C00600000004406E
:1015A00006C0010006C0044000000410071004E05B
:1015B0000180060004000000044005C0064004400D
:1015C00000000000000004007BE04020000000005C
:1015D00000000000FFF000000000000040207BE061
:1015E00004000000000040008000400020002000B7
:1015F00040000000000000000000000000000000AB
:1016000000000000000000001FCC000C00000000E3
:10161000000000000800300060000800300060009A
:101620000000022003FC1E20022003FC1E200220DA
:10163000000000000E1811043FFF10840C78000019
:1016400000000F0010840F3800C00778188400785D
:10165000000000780F8410C411240E9800E4008468
:101660000008080068007000000000000000000092
:10167000000000000000000007E0181820044002ED
:101680000000000040022004181807E000000000DD
:1016900000000240024001800FF001800240024041
:1016A00000000080008000800FF800800080008033
:1016B00000000001000D000E00000000000000000E
:1016C000000000000080008000800080008000801A
:1016D00000800000000C000C000000000000000072
:1016E00000000000000600180060018006001800DD
:1016F0002000000007F0080810041004080807F094
:1017000000000000080408041FFC0004000400009E
:10171000000000000E0C10141024104411840E0C54
:10172000000000000C1810041104110412880C7041
:101730000000000000E00320042408241FFC002413
:10174000000000001F98108411041104108810700C
:101750000000000007F008881104110418880070C8
:10176000000000001C00100010FC13001C00100002
:10177000000000000E3811441084108411440E380B
:10178000000000000700088C10441044088807F08F
:101790000000000000000000030C030C000000002B
:1017A0000000000000000001010600000000000031
:1017B000000000000080014002200410080810040E
:1017C000000002200220022002200220022002202B
:1017D00000000000100408080410022001400080EE
:1017E000000000000E001200100C106C10800F00A2
:1017F000000003E00C1813E4142417C4082807D0D1
:1018000000000004003C03C41C40074000E4001C2E
:10181000000410041FFC1104110411040E88007050
:10182000000003E00C1810041004100410081C1031
:10183000000010041FFC100410041004080807F036
:10184000000010041FFC1104110417C41004081830
:10185000000010041FFC1104110017C01000080044
:10186000000003E00C181004100410441C78004021
:10187000000010041FFC10840080008010841FFCF6
:1018800010040000100410041FFC100410040000D9
:10189000000000030001100110011FFE10001000E5
:1018A000000010041FFC110403801464181C1004B1
:1018B000000010041FFC1004000400040004000CCD
:1018C000000010041FFC1F0000FC1F001FFC100480
:1018D000000010041FFC0C04030000E010181FFCA3
:1018E000100007F00808100410041004080807F09E
:1018F000000010041FFC10841080108010800F0066
:10190000000007F0081810241024101C080A07F221
:10191000000010041FFC1104110011C011300E0C46
:10192000000400000E1C11041084108410441C38A4
:1019300000001800100010041FFC10041000180014
:10194000000010001FF810040004000410041FF829
:10195000100010001E0011E0001C007013801C001D
:1019600010001FC0103C00E01F0000E0103C1FC032
:1019700000001004180C163401C001C01634180CF5
:10198000100410001C00130400FC13041C001000C1
:1019900000000804101C1064108413041C041018A8
:1019A00000000000000000007FFE400240024002F4
:1019B0000000000030000C0003800060001C0003E9
:1019C000000000004002400240027FFE00000000D4
:1019D0000000000000002000400040004000200007
:1019E00000000001000100010001000100010001F0
:1019F0000001000040004000200000000000000046
:101A0000000000000098012401440144014400FC4E
:101A1000000410001FFC008801040104008800700D
:101A20000000000000700088010401040104008827
:101A300000000000007000880104010411081FFC70
:101A40000004000000F8014401440144014400C8BE
:101A500000000000010401040FFC11041104110036
:101A60001800000000D601290129012901C9010639
:101A7000000010041FFC008401000100010400FCB0
:101A8000000400000104190419FC00040004000013
:101A900000000000000300010101190119FE00000F
:101AA000000010041FFC0024004001B4010C0104DC
:101AB00000000000100410041FFC000400040000DB
:101AC0000000010401FC0104010001FC010401000B
:101AD00000FC010401FC008401000100010400FC81
:101AE0000004000000F8010401040104010400F8EE
:101AF0000000010101FF008501040104008800705D
:101B0000000000000070008801040104010501FFCD
:101B100000010104010401FC0084010401000180B2
:101B20000000000000CC01240124012401240198BC
:101B3000000000000100010007F80104010400009A
:101B40000000010001F8000400040004010801FC89
:101B50000004010001800170000C00100160018090
:101B6000010001F0010C003001C00030010C01F057
:101B7000010000000104018C00740170018C01045B
:101B80000000010101810171000E00180160018057
:101B9000010000000184010C013401440184010CA6
:101BA0000000000000000000000001003EFC4002B8
:101BB00040020000000000000000FFFF00000000E5
:101BC00000000000400240023EFC01000000000056
:101BD0000000000060008000800040004000200005
:101BE00020000000000000000000000000000000D5
:101BF00000000000000000000000000000000000E5
:101C000000000000000000000000000000000000D4
:101C100000000000000F80380FFE380F80380000F1
:101C200000000000000000000000000000000000B4
:101C30000100000600000C00003800003100000622
:101C400000000C0000380000300000000000000020
:101C5000000061800067F807F98000618000618002
:101C60000061800061800067F807F98000618000F2
:101C7000000000000000000001C0E003E0F00630BA
:101C8000080418081FFFFE040E080787F00381E010
:101C900000000000000001F000060C00040408062B
:101CA0000C7001F9C0000E00003BE000EC180708C2
:101CB00008040C180003E00000000001E00007F039
:101CC00003F818041C0804170807E1D003C0E0005B
:101CD00023B0003C080020080000100000000000B5
:101CE000000100003100003200001C000000000074
:101CF00000000000000000000000000000000000E4
:101D000000000000000000000000000000000000D3
:101D100000007F0001FFC00780F00C0018100004D5
:101D20002000020000000000002000021000040C4F
:101D300000180780F001FFC0007F000000000000D5
:101D40000000000000000000000000000000420051
:101D5000006600006600003C0000180003FFC000A1
:101D60001800003C00006600006600004200000011
:101D7000000008000008000008000008000008003B
:101D800001FFC00008000008000008000008000073
:101D900008000000000000010000310000320000D7
:101DA0001C00000000000000000000000000000017
:101DB0000000000000000000000008000008000013
:101DC00008000008000008000008000008000008E3
:101DD00000000800000800000000000000000000F3
:101DE000000038000038000038000000000000004B
:101DF00000000000000000000000000000000000E3
:101E00000000000600001C000070000180000E00B1
:101E100000380000C0000700001C00003000000077
:101E20000000000000007F8001FFE00380700600DA
:101E30001804000804000806001803807001FFE081
:101E4000007F800000000000000000000100080189
:101E5000000801000803FFF807FFF8000008000071
:101E60000800000800000000000000000001C03869
:101E700002C058040098040118040218040418064B
:101E80001C1803F81801E0F8000000000000000032
:101E90000001C0E003C0F0040008040808040808BA
:101EA00006180803F41801E7F00001E00000000044
:101EB0000000000000000300000D000011000061A0
:101EC0000000810803010807FFF80FFFF800010870
:101ED0000001080000000000000000E007FCD00640
:101EE0000808061008061008061008061838060F1D
:101EF000F00607C0000000000000000000003F8066
:101F000001FFE003843002081804100804100804DC
:101F10001008071810030FF00007C00000000000B1
:101F20000000000003C0000700000600000600F8E3
:101F30000607F806180006E000070000060000008B
:101F4000000000000001E1E003F7F006341004187F
:101F500008041808040C08040C0806161803F3F00B
:101F600001C1E000000000000000F80003FC3003A5
:101F700006380402080402080402080404100308D6
:101F8000F001FFC0007F0000000000000000000022
:101F900000000000000000000000703800703800F1
:101FA0007038000000000000000000000000000089
:101FB0000000000000000000000000000000301AD7
:101FC00000301C00000000000000000000000000C5
:101FD00000000000000000000008000014000022C3
:101FE0000000410000808001004002002004001039
:101FF000080008000000000000002100002100008F
:10200000210000210000210000210000210000210A
:10201000000021000021000000000000000000007E
:102020000800080400100200200100400080800029
:102030004100002200001400000800000000000021
:102040000003C00004C000040000080038080F3876
:102050000808380810000C300007E00003C000003A
:102060000000000000003F8000FFE0038070020FCE
:102070001006708804C088048308047F8802C0901A
:1020800003012000FE400000080000180001F800D5
:102090003E0801C20007020007E20000FE00001F28
:1020A000C80001F800003800000804000807FFF825
:1020B00007FFF804080804080804080804080806CC
:1020C000180803F41801E7F00001E0000000000028
:1020D00000003F8001FFE003807002001804000848
:1020E0000400080400080400100600200780C00057
:1020F000000004000807FFF807FFF80400080400C8
:102100000804000804001802001003807001FFE0BA
:10211000007F8000000004000807FFF807FFF804B4
:102120000808040808040808040808043E08040015
:102130000806001801006000000004000807FFF80E
:1021400007FFF80408080408000408000408000455
:102150003E000600000600000180000000000000B4
:1021600000003F8001FFE0038070060018040008B3
:102170000402080402080203F00783F000020000D2
:10218000020004000807FFF807FFF8040808000829
:102190000000080000080000080004080807FFF815
:1021A00007FFF80400080000000000000400080415
:1021B000000804000807FFF807FFF80400080400FF
:1021C00008040008000000000000000000000006F5
:1021D00000000700000104000104000104000307DF
:1021E000FFFE07FFFC0400000400000400000400E0
:1021F0000807FFF807FFF8040C08001800003E006D
:1022000004C7800503C80600F8040038040018005D
:10221000000804000807FFF807FFF80400080000A2
:10222000080000080000080000080000080000186E
:1022300000006000000004000807FFF8078008079E
:10224000FC00007FC00003F80007C0007800078092
:102250000807FFF807FFF804000804000807FFF864
:1022600007000803C00000E000003800001E000066
:1022700007000001C00400F007FFF80400000000A0
:1022800000007F8001FFE003807006001804000852
:1022900004000806001803003001FFE0007F800002
:1022A000000004000807FFF807FFF804040804040E
:1022B00000040400040400040400060C0003F800F9
:1022C00001F000000000000000007F8001FFE0033B
:1022D00080700600880400880400C806003C0300E3
:1022E0003E01FFE6007F8400000004000807FFF8BD
:1022F00007FFF8040808040800040C00040F000499
:102300000BC00610F003F03801E0080000080000E0
:102310000001E0F803F03006301004180804180833
:10232000040C08040C080206180207F00781E000FC
:10233000000001800006000004000004000004000A
:102340000807FFF807FFF804000804000004000075
:1023500006000001800004000007FFE007FFF00412
:102360000018000008000008000008000008000035
:102370000804001007FFE00400000400000600004D
:1023800007E00007FE00041FE00001F8000038002D
:1023900001E0043E0007C000060000040000040045
:1023A0000007E00007FFC0041FF80007C007F8009F
:1023B00007FF80043FF80007C004F800070000048E
:1023C000000000000004000806001807C07805F1AE
:1023D000C8003E00001F800463E80780F80600186C
:1023E0000400080000000400000600000780000749
:1023F000E008047C08001FF80007F800180804E053
:1024000008070000060000040000000000010008AA
:102410000600380400F80403E8040F08047C0805EB
:10242000F00807C008070018040060000000000062
:10243000000000000000000000000000003FFFFE60
:1024400020000220000220000220000220000200E2
:10245000000000000000000008000007000000C0AD
:10246000000038000006000001C000003000000E2F
:102470000000010000000000000000002000022019
:1024800000022000022000022000023FFFFE0000A8
:10249000000000000000000000000000000000003C
:1024A0000000000800001000003000002000003094
:1024B0000000100000080000000000000000000004
:1024C0000100000100000100000100000100000106
:1024D00000000100000100000100000100000100F7
:1024E00000010000000000000000002000002000AB
:1024F00000100000100000000000000000000000BC
:102500000000000000000000000000F00019F800CA
:102510001B18002208002608002408002410003F91
:10252000F8001FF800000800001800000004000078
:1025300007FFF80FFFF0001818001008002008002F
:102540002008003018001FF0000FC000000000003D
:10255000000007C0001FF00018300020080020080D
:10256000002008003C08001C100000600000000073
:1025700000000000000007C0001FF0003818002015
:102580000800200800200804101007FFF80FFFF0D3
:102590000000100000000000000000000007C00064
:1025A0001FF000123000221800220800220800321A
:1025B00008001E10000E2000000000000000200097
:1025C00000200800200801FFF803FFF80620080497
:1025D000200804200807200003000000000000007D
:1025E0000000000E000E6E001FF30031B10020B19C
:1025F0000020B1003191001F13002E1E00200E009C
:10260000300000000004000807FFF80FFFF800107A
:1026100008002000002000002008003FF8001FF8FC
:10262000000008000000000000000000002008007A
:102630002008002008063FF8063FF80000080000C8
:10264000080000080000000000000000000000007A
:102650000000030000030020010020010020030609
:102660003FFE063FFC0000000000000000000000EC
:102670000004000807FFF80FFFF8000188000300BE
:10268000002FC00038F800203800200800000800A3
:10269000000000000000000004000804000804001E
:1026A0000807FFF80FFFF800000800000800000806
:1026B000000000000000002008003FF8003FF80084
:1026C0001008002000003FF8003FF800100800202C
:1026D00000003FF8003FF80000080000000020085C
:1026E000003FF8003FF80010080010000020000034
:1026F0002008003FF8001FF800000800000000005C
:10270000000007C0000FF00018300030080020085B
:10271000002008003008001830000FF00007C0004B
:102720000000000000002001003FFF003FFF0010FC
:1027300011002009002008002008003038001FF098
:10274000000FC00000000000000007C0001FF000E4
:102750003818002008002008002009001011001F70
:10276000FF003FFF000001000000002008002008DB
:10277000002008003FF8003FF8000808001008009B
:1027800020080020000030000030000000000000A1
:1027900000000000000C78001E1800330800230819
:1027A0000021080021880021980030F000386000E6
:1027B000000000000000200000200000200000FFBA
:1027C000F003FFF800200800200800200800003077
:1027D000000000000000000000002000003FF000AA
:1027E0007FF8000018000008000008002010003FDB
:1027F000F8007FF000001000000000000000200042
:10280000003000003C00003F800023F00000780012
:102810000070002380003C000030000020000020F9
:1028200000003C00003FE00023F80000E00027002B
:10283000003E00003FE00021F80001E0003E000003
:102840002000000000002008002008003838003E6A
:10285000680027800003C8002CF8003838002018D2
:1028600000200800000000000000200000300300ED
:102870003C01003F830023EC000070002380003CFB
:102880000000200000200000000000000000000008
:102890000038080020380020F80023E8002F8800C6
:1028A0003E080038080020180000700000000000FA
:1028B0000000000000000000000000000000080010
:1028C0000014001FF7FC300006200002000000008A
:1028D00000000000000000000000000000000000F8
:1028E00000000000FFFFFF000000000000000000EB
:1028F0000000000000000000000000002000023086
:1029000000061FF7FC001400000800000000000093
:10291000000000000000000000000000001800009F
:10292000600000400000400000200000100000088F
:1029300000000400000400000C0000100000000073
:10294000000000000000010203040607080900005F
:102950007029000800000020E8140000AC02000804
:10296000C42B0008E8140020800800005A11000859
:1029700011400D4042445840407F40405048C67B83
:1029800040440132FF180D0808E8292E28E80808FD
:10299000C80C0B063126FF0949897F1C0F408006B1
:1029A0001115404042CC400B40A09E8282829EA0E6
:1029B0002020100D3F908840432C102846418080F5
:1029C0002B100C4A3B45C65113140C1E8040201E90
:1029D00020703910234040180BF80C0B0808F84001
:1029E000308F0807311B7F2101295A1D4380403F4A
:1029F00060100F7C407F484840F2121AD61212F243
:102A0000022010908E404F201E804F20180710206B
:102A10004F80180E14A4442434AD6624940444A4B6
:102A200014B0180A090808090909FD0909571A0903
:102A3000B0180920222C2020E03F200132E019802C
:102A400015100806013B01465F111010101010FF11
:102A50009020988888E98E8888A8981C0242817DF9
:102A6000180880844B281028475F10104030EF244E
:102A70002480E49C105454FF547C10301001017FDA
:102A800021512618274445455F45454422FC1C0238
:102A900004183429B5311D3F10088465170C03084C
:102AA0001020C015404042CC380B40A09E8282824C
:102AB0009EA0202021100C908840432C10284641D5
:102AC00080801C100C44012B45C6062C44140CA01D
:102AD0003E1E2040407F108340404BFF0801290BE1
:102AE0006A41012AFFC0280C0C4424140405060482
:102AF000041424401971291B2A7F05493F1BFE40FD
:102B000001113AFFF941167F202010102A3F164389
:102B100040784BC080014BFC84080336C0C03BFFAB
:102B20007F544B40FF07043E40FF7F034A7F700302
:102B300073FCF86CFFFE02018BFFFF0B0268036C55
:102B40001F1F04017BFFFF0B02741F038C7F3F07D5
:102B5000FFF8F8F0F0702001E60214801AFF010976
:102B6000122C09132D01FF01C0EDFFFFFE06011A13
:102B7000FF01F915391603FF070201D10C12FFFFFF
:102B8000FF1409101509151601FF01C1EDFFFFFF24
:102B900018011914091015391601FF01D204120287
:102BA00001011AFF01011209122A01FF01D71AFFC0
:102BB0000101FF01FD05FF1F1F0F0F01E032018220
:042BC000101324F4D6
:040000050800018965
:00000001FF
