:020000040800F2
:10000000F8250020A1010008511A0008CB180008AB
:100010004D1A0008A5070008312400080000000060
:10002000000000000000000000000000431F000866
:10003000A907000800000000411F0008451F000834
:10004000BB010008BB010008BB010008BB010008A0
:10005000BB010008BB010008BB010008BB01000890
:10006000BB010008BB010008BB010008BB01000880
:10007000BB010008BB010008BB010008BB01000870
:10008000BB010008BB010008BB010008BB01000860
:10009000BB010008BB010008BB010008BB01000850
:1000A000BB010008BB010008BB010008BB01000840
:1000B000BB010008BB010008BB010008BB01000830
:1000C000BB010008BB010008BB010008BB01000820
:1000D000BB010008BB010008BB010008BB01000810
:1000E000BB010008BB010008BB010008BB01000800
:1000F000BB010008BB010008BB010008BB010008F0
:10010000BB010008BB01000821200008BB0100085A
:10011000BB010008BB010008BB010008BB010008CF
:10012000BB010008BB010008BB010008BB010008BF
:10013000BB010008BB010008BB010008BB010008AF
:10014000BB010008BB010008BB010008BB0100089F
:10015000BB010008BB010008BB010008BB0100088F
:10016000BB010008BB010008BB010008BB0100087F
:10017000BB010008BB010008BB0100080000000033
:10018000BB010008BB010008DFF810D000F05EFAE8
:1001900000480047492D0008AFF30080F8250020F3
:1001A0000648804706480047FEE7FEE7FEE7FEE711
:1001B000FEE7FEE7FEE7FEE7FEE7FEE705200008B4
:1001C000890100082DE9F05F0546002092469B4614
:1001D00088460646814640241BE02846414647465D
:1001E000224600F06AF853465A46C01A914110D38D
:1001F00011461846224600F051F82D1A67EB010807
:100200004F4622460120002100F048F817EB000974
:100210004E41201EA4F10104DFDC484631462A4647
:100220004346BDE8F09FD2B201E000F8012B491E21
:10023000FBD270470022F6E710B513460A46044683
:100240001946FFF7F0FF204610BD00F0004230F0E5
:1002500000400AD0C10D01F56071C0F3160042EAFA
:100260000151C20840071143704700200146704702
:1002700030B50B46014600202022012409E021FA76
:1002800002F59D4205D303FA02F5491B04FA02F573
:100290002844151EA2F10102F1DC30BD202A04DB46
:1002A000203A00FA02F1002070479140C2F1200389
:1002B00020FA03F3194390407047202A04DB203AC8
:1002C00021FA02F00021704721FA02F3D040C2F176
:1002D000200291400843194670472DE9FE4F8046A1
:1002E00081EA0300C00F0C46009021F0004123F08A
:1002F0000045B8EB0200A94105D240462146904690
:100300001C460B46024623F00040104347D0270D01
:10031000C7F30A00C3F30A510290401A0190402823
:100320006BDAC3F3130040F4801B0098924620B1AF
:100330000023D2EB030A63EB0B0B01985946C0F183
:1003400040025046FFF7AAFF06460D465046594662
:10035000019A00F08DF910EB08006141002487EA52
:10036000115284EAE7731A4340D0009A62B3019AAB
:10037000012A4FEA075215DC001B61EB02014FF026
:10038000004202EA0752CDE90042001C41F580110B
:1003900032462B4600F08DF903B0BDE8F08F4046A1
:1003A0002146F9E7001B61EB0201001C41F58013B7
:1003B00000185B412018A2F5001747EB030140EA43
:1003C000D570B6196D4111E06D084FEA360645EA61
:1003D000C0754FEA0752001B61EB0201001C41F59A
:1003E000801149084FEA30000019514132462B462E
:1003F00003B0BDE8F04F00F04DB900980122400075
:100400000023D0EB020263EBE073009821464FEA31
:10041000E074B8EB000061EB0401E9E783F000430E
:100420005BE781F0004158E72DE9FE4F81EA0304C4
:1004300004F0004421F0004100944FF0000B23F041
:10044000004350EA01045ED052EA03045BD0C3F3D8
:100450000A54C1F30A552C44A4F2F3340194A0FBCE
:100460000254C1F3130141F48011C3F3130343F4A5
:10047000801301FB024400FB034E840A970A44EAFE
:10048000815447EA8357A4FB076802958D0A05FB50
:1004900007854FEA932C04FB0C542705029D4FEA75
:1004A000065847EA1637B5EB08056EEB070C870EC2
:1004B000920E47EA811742EA8312A7FB0201B6EBCC
:1004C0000B0164EB00042B0D43EA0C335E1844EB84
:1004D0001C50DA465146E7FB0201C5F313044FEA0C
:1004E0000B3343EA14534FEA0432019C43EA0603F8
:1004F000A4F10C040294009CCDE900B400F0D9F8FA
:1005000003B0BDE8F08F00200146F9E72DE9F04D7A
:1005100081EA030404F0004B21F0004514464FF03B
:10052000000A23F0004150EA050220D054EA0102FB
:100530001DD0C5F30A570246C5F31303C1F31300D8
:10054000C1F30A5640F4801543F48013A7EB060864
:10055000101BD64608F2FD3873EB050002D308F1F4
:10056000010801E092185B41B8F1000F03DA0020A6
:100570000146BDE8F08D00204FF480110646844608
:100580000EE0171B73EB050705D3121B63EB050386
:1005900006434CEA010C49084FEA300092185B41CF
:1005A00050EA0107EDD152EA030012D082EA0400BA
:1005B00083EA0501084305D0101BAB4106D2012296
:1005C000002306E000224FF0004302E06FF001023A
:1005D00053101AEB06004CEB085110EB0A0041EBEC
:1005E0000B01BDE8F04D00F055B8C1F30A52C1F35C
:1005F000130140F2FF3341F480119A4202DA0020E5
:100600000146704740F233439A42A2F2334202DC81
:100610005242FFF752BEFFF741BE000030B5041E44
:1006200071F1000404DB4FF00044404264EB01012F
:10063000141E73F1000405DB1C464FF000435242C8
:1006400063EB0403994208BF904230BD064C074D4E
:1006500006E0E06840F0010394E807009847103492
:10066000AC42F6D3FFF794FD484600086846000800
:10067000202A06DBCB17203A41FA02F043EAE07366
:1006800006E041FA02F3D040C2F120029140084353
:100690001946704710B5141E73F1000408DA401CA7
:1006A00041F1000192185B411A4301D120F0010091
:1006B00010BD2DE9F04D92469B4611B1B1FA81F281
:1006C00002E0B0FA80F220329046FFF7E7FD0446E0
:1006D0000F4640EA0A0041EA0B0153465A460843D6
:1006E00013D0114653EA010019D0C8F14002504618
:1006F000FFF7E3FD05460E46504659464246FFF7D2
:10070000CDFD084305D0012004E020463946BDE870
:10071000F08D0020054346EAE0762C4337430A98E3
:100720006305E40AA0EB08000022FD0A44EA4754EE
:100730000A3002D500200146E9E701051019694198
:10074000DDE9084500196941BDE8F04DA2E770B543
:100750008C1810F8015B15F0070301D110F8013B6C
:100760002A1106D110F8012B03E010F8016B01F8F3
:10077000016B5B1EF9D12B0705D40023521E0DD44B
:1007800001F8013BFAE710F8013BCB1A921C03E099
:1007900013F8015B01F8015B521EF9D5A142D8D3D1
:1007A000002070BD00BFFEE7704772B600BFFEE7D5
:1007B00070B5044600F016F906462546681C10B1CF
:1007C00004480078054400BF00F00CF9801BA842E3
:1007D000FAD370BDE81C0020F8B502460B46002590
:1007E000002400200021DCE0012606FA01F51E6845
:1007F00006EA0504AC4273D15E68012E08D05E683B
:10080000022E05D05E68112E02D05E68122E13D122
:1008100090684F000326BE40B0434F00DE68BE40E4
:1008200030439060506801268E40B0431E79C6F375
:1008300000168E4030435060D0684F000326BE4003
:10084000B0434F009E68BE403043D0605E68022EC9
:1008500002D05E68122E13D1CF0802F1200656F89E
:1008600027004E07F70E0F26BE40B0434F07FF0E7E
:100870001E69BE403043CF0802F1200646F827002B
:1008800010684F000326BE40B0431E7906F00306F1
:100890004F00BE40304310605E6806F08056B6F1EF
:1008A000805F7DD100BF00260096404E366846F43A
:1008B00080463E4F3E603E46366806F480460096CF
:1008C00000BF00BF3A4E8F0856F827008E07370F3B
:1008D0000F26BE40B043374EB24202D1002624E07C
:1008E0005EE0354EB24201D101261EE0334EB242E7
:1008F00001D1022619E0324EB24201D1032614E0A2
:10090000304EB24201D104260FE02F4EB24201D147
:1009100005260AE02D4EB24201D1062605E02C4EF6
:10092000B24201D1072600E008268F073F0FBE40E4
:1009300030431F4E8F0846F82700264E3068A043EC
:100940005E6806F48036B6F5803F00D12043214E24
:100950003060361D3068A0435E6806F40036B6F598
:10096000003F00D120431B4E361D3060361D3068DD
:10097000A0435E6806F48016B6F5801F00D12043C0
:10098000144E08363060361D3068A0435E6806F4A9
:100990000016B6F5001F00D120430E4E0C36306015
:1009A000491C1029FFF420AFF8BD00004438024074
:1009B00008380140000002400004024000080240E4
:1009C000000C0240001002400014024000180240D7
:1009D000001C0240003C01400AB1816101E00B04AF
:1009E000836170470148006870470000E01C0020E8
:1009F00003480068034909780844014908607047C2
:100A0000E01C0020E81C002010B50D48006840F4F0
:100A100000700B4908600846006840F48060086078
:100A20000846006840F480700860032000F0A2F8D7
:100A3000002000F007F800F02BF8002010BD0000A7
:100A4000003C024070B504460E4800784FF47A71BD
:100A5000B1FBF0F00C490968B1FBF0F5284600F055
:100A6000FBFB08B1012070BD102C07D200222146EB
:100A7000501E00F041F80548046001E00120F2E753
:100A80000020F0E7E81C0020DC1C0020E41C002013
:100A900008B500BF002000900E48006840F4804078
:100AA0000C4908600846006800F48040009000BFD0
:100AB00000BF00BF00200090081F006840F0805079
:100AC000091F08600846006800F08050009000BFD1
:100AD00000BF08BD4438024001460846002809DB33
:100AE00000F01F0301229A4043099B0003F1E02319
:100AF000C3F8002100BF70472DE9F05F80460D4626
:100B00001646002701F0AAFC074639462A46334616
:100B100001F00700C0F1070ABAF1040F02D94FF043
:100B2000040A01E0C0F1070AD14600F1040ABAF153
:100B3000070F02D24FF0000A01E0A0F1030AD446E9
:100B40004FF0010A0AFA09FAAAF1010A0AEA020AAE
:100B50000AFA0CFA4FF0010B0BFA0CFBABF1010B8C
:100B60000BEA030B4AEA0B042146404601F07EFCE7
:100B7000BDE8F09F00BF00F00702064B19684FF672
:100B8000FF031940044B0B4343EA0221014B196058
:100B900000BF70470CED00E00000FA0570B5044698
:100BA0000D460CB9012070BD5848006800F00F00D8
:100BB000A84209D255490D700846006800F00F00A0
:100BC000A84201D00120EEE7207800F002000228C0
:100BD0001DD1207800F00400042805D14C4800689D
:100BE00040F4E0504A490860207800F008000828E6
:100BF00005D14748006840F46040454908604448D2
:100C0000006820F0F000A16808434149086020789E
:100C100000F00100A8B36068012807D13C480838FB
:100C20000068C0F34040B8B90120BCE76068022802
:100C300002D06068032807D1354808380068C0F33F
:100C4000406048B90120AEE7314808380068C0F379
:100C5000400008B90120A6E72D48006820F00300F5
:100C6000616808432A490860FFF7BCFE064609E0B0
:100C7000FFF7B8FE801B41F28831884202D9032079
:100C800091E707E02248006800F00C006168B0EBD3
:100C9000810FEDD11D48006800F00F00A84209D96E
:100CA0001A490D700846006800F00F00A84201D0F4
:100CB000012078E7207800F00400042807D11448C8
:100CC000006820F4E050E16808431149086020788A
:100CD00000F00800082808D10D48006820F46040A2
:100CE000216940EAC1000A49086000F019F8084982
:100CF0000968C1F30311074A515CC84006490860FE
:100D000006480068FFF79EFE00204CE7003C0240CA
:100D10000838024030460008DC1C0020E41C00209B
:100D20002DE9F047002400250026A146254800684B
:100D300000F00C0020B1042805D008283AD105E0C5
:100D4000DFF8849039E0DFF8849036E01D48001F1A
:100D5000006800F03F041B48001F006800F480009A
:100D600078B11A481749091F0968C1F38811A0FB17
:100D700001700146224600233846FFF723FA054654
:100D80000EE011480F49091F0968C1F38811A0FB43
:100D900001700146224600233846FFF713FA054644
:100DA0000848001F0068C0F30140401C4600B5FB26
:100DB000F6F902E0DFF8109000BF00BF4846BDE83A
:100DC000F0870000083802400024F40040787D01DC
:100DD000F8B504460CB90120F8BD207800F00100F8
:100DE000002874D0F948006800F00C0004280DD0E9
:100DF000F648006800F00C00082813D1F348001FE3
:100E0000006800F48000B0F5800F0BD1EF4808387F
:100E10000068C0F34040002859D06068002856D1CF
:100E20000120D9E700BF6068B0F5803F08D1E748EE
:100E30000838006840F48030E449083908601EE052
:100E40006068B0F5A02F0DD1E0480838006840F484
:100E50008020DE49083908600846006840F4803088
:100E600008600CE0D9480838006820F48030D74981
:100E7000083908600846006820F48020086000BF38
:100E8000606890B1FFF7AEFD054606E0FFF7AAFDEA
:100E9000401B642801D903209EE7CC48083800682D
:100EA000C0F340400028F1D011E0FFF79BFD05465C
:100EB00006E0FFF797FD401B642801D903208BE76C
:100EC000C24808380068C0F340400028F1D12078BB
:100ED00000F0020002285FD1BC48006800F00C005E
:100EE00058B1BA48006800F00C0008281CD1B74877
:100EF000001F006800F48000B0B9B44808380068EA
:100F0000C0F3400020B1E068012801D0012063E770
:100F1000AE480838006820F0F800216940EAC100B6
:100F2000AA490839086037E0E06800B30120A84901
:100F30000860FFF757FD054606E0FFF753FD401B2D
:100F4000022801D9032047E7A04808380068C0F309
:100F500040000028F1D09D480838006820F0F800D3
:100F6000216940EAC10099490839086014E000206D
:100F700097490860FFF736FD054606E0FFF732FDAA
:100F8000401B022801D9032026E790480838006852
:100F9000C0F340000028F1D1207800F008000828B4
:100FA0002CD16069A8B101208A490860FFF71AFDB9
:100FB000054606E0FFF716FD401B022801D9032075
:100FC0000AE782486C300068C0F340000028F1D086
:100FD00014E000207F490860FFF704FD054606E0A5
:100FE000FFF700FD401B022801D90320F4E67748F3
:100FF0006C300068C0F340000028F1D1207800F088
:101000000400042870D1002770483830006800F0D0
:10101000805090B900BF002000906C4838300068C4
:1010200040F080506949383108600846006800F097
:101030008050009000BF00BF01276748006800F49F
:101040008070B0B96448006840F4807062490860FC
:10105000FFF7C8FC054606E0FFF7C4FC401B02286A
:1010600001D90320B8E65C48006800F480700028CD
:10107000F2D000BFA068012808D154486830006849
:1010800040F001005149683108601DE0A068052862
:101090000DD14E486830006840F004004B4968317B
:1010A00008600846006840F0010008600CE047480E
:1010B0006830006820F00100444968310860084643
:1010C000006820F00400086000BFA068A8B1FFF726
:1010D00089FC054609E0FFF785FC401B41F2883199
:1010E000884202D9032077E626E038486830006855
:1010F000C0F340000028EED013E0FFF773FC054674
:1011000008E0FFF76FFC401B41F28831884201D9AB
:10111000032061E62D4868300068C0F340000028D5
:10112000EFD1012F07D129483830006820F08050D6
:1011300026493831086000BFA069002845D02348FF
:10114000006800F00C0008285DD0A069022845D195
:1011500000201F490866FFF745FC054606E0FFF73B
:1011600041FC401B022801D9032035E61748083806
:101170000068C0F340600028F1D1D4E907010843BA
:10118000616A40EA81110122A06AC2EB500041EA83
:1011900000412C20005D41EA00600C49091F0860F5
:1011A00001200B490866FFF71DFC054606E0FFF726
:1011B00019FC401B022801D903200DE6034808381A
:1011C0000068C0F340600028F1D03FE008380240DA
:1011D00000004742800E47420070004000201C493A
:1011E0000866FFF7FFFB054606E0FFF7FBFB401B29
:1011F000022801D90320EFE516480068C0F34060DB
:101200000028F2D122E0A069012800D1E4E51148CC
:10121000001D066806F48001E069814214D106F0E1
:101220003F01206A81420FD147F6C0703040616AA9
:10123000884209D106F44031A06A814204D106F007
:101240007061E06A814201D00120C5E50020C3E55C
:10125000000047420038024070B504462546681E2B
:10126000B0F1807F01D301200FE0681E4FF0E02134
:1012700048610F214FF0FF3001F0F8F800204FF0E7
:10128000E021886107200861002070BD7047704729
:1012900030B502460B4600BF92F83C00012801D150
:1012A000022030BD012082F83C0000BF022082F8FD
:1012B0003D00106844681068816824F07004186864
:1012C000044310684460184D1068A8421BD0106891
:1012D000B0F1804F17D0154D1068A84213D0144DAF
:1012E0001068A8420FD0134D1068A8420BD0124DC1
:1012F0001068A84207D0114D1068A84203D0104DC5
:101300001068A84205D121F0800158680143106897
:101310008160012082F83D0000BF002082F83C007F
:1013200000BF00BFBDE70000000001400004004016
:1013300000080040000C0040000401400040014053
:101340000018004010B504460CB9012010BD94F8F7
:101350003D0028B9002084F83C00204600F00CF83D
:10136000022084F83D00211D206800F061FE01206C
:1013700084F83D000020E9E738B504460E492068AE
:10138000884217D100BF002000900C48006840F050
:1013900008000A4908600846006800F0080000904C
:1013A00000BF00BF002211463220FFF7A5FB32200C
:1013B000FFF792FB38BD0000000C004040380240AF
:1013C00001460868C06840F001000B68D8600868F2
:1013D000806800F00702062A05D00868006840F01F
:1013E00001000B681860002070472DE9F0410446A9
:1013F0000D4600BF94F83C00012802D10220BDE850
:10140000F081012084F83C0000BF022084F83D00F8
:101410002068866826F0770626F47F462068866076
:101420002868502833D00CDC202850D004DC002859
:101430004BD0102851D149E0302849D040284CD118
:1014400039E060282DD0702807D0B0F5805F03D038
:10145000B0F5005F41D10DE040E0D5E902136A68C4
:10146000206800F062FE2068866846F077062068F3
:10147000866033E0D5E902136A68206800F055FE03
:101480002068806840F480402168886026E0EA682F
:101490006968206800F03AFF5021206800F050FE93
:1014A0001CE0EA686968206800F043FF602120685A
:1014B00000F046FE12E0EA686968206800F026FF46
:1014C0004021206800F03CFE08E000BF00BF00BFE4
:1014D0002968206800F034FE00E000BF00BF012052
:1014E00084F83D0000BF002084F83C0000BF00BF2E
:1014F00085E7704710B5044620680069C0F34000D6
:10150000D8B12068C068C0F34000B0B16FF00200ED
:1015100021680861012020772068806900F00300BD
:1015200018B12046FFF7E5FF05E0204600F0DCF8A3
:10153000204600F091F90020207720680069C0F370
:101540008000D8B12068C068C0F38000B0B16FF0EF
:10155000040021680861022020772068806900F477
:10156000407018B12046FFF7C4FF05E0204600F0A8
:10157000BBF8204600F070F9002020772068006951
:10158000C0F3C000D8B12068C068C0F3C000B0B1DB
:101590006FF0080021680861042020772068C06986
:1015A00000F0030018B12046FFF7A3FF05E0204636
:1015B00000F09AF8204600F04FF9002020772068CC
:1015C0000069C0F30010D8B12068C068C0F30010F3
:1015D000B0B16FF010002168086108202077206802
:1015E000C06900F4407018B12046FFF782FF05E0A3
:1015F000204600F079F8204600F02EF900202077F0
:101600002068006900F0010058B12068C06800F04F
:10161000010030B16FF0010021680861204600F040
:1016200049F920680069C0F3C01058B12068C0684B
:10163000C0F3C01030B16FF080002168086120460F
:10164000FFF724FE20680069C0F3801058B12068BD
:10165000C068C0F3801030B16FF0400021680861AD
:10166000204600F031F920680069C0F3401058B1FD
:101670002068C068C0F3401030B16FF020002168CE
:1016800008612046FFF703FE10BD000010B586B0CC
:101690000446142101A8FEF7CDFD2068B0F1804F6B
:1016A0001BD100BF002000900D48006840F00100F1
:1016B0000B4908600846006800F00100009000BF78
:1016C00000BF0220019002900020039004900120AE
:1016D000059001A90348FFF77FF806B010BD000090
:1016E0003038024000000240704770B504460D4695
:1016F000164600BF94F83C00012801D1022070BDBD
:10170000012084F83C0000BF022084F83D0036B17F
:10171000042E1BD0082E31D00C2E5ED145E0294678
:10172000206800F017FD2068806940F008002168FB
:1017300088612068806920F0040021688861206841
:101740008069296908432168886147E02946206843
:1017500000F038FD2068806940F4006021688861ED
:101760002068806920F48060216888612068806931
:10177000296940EA0120216888612FE02946206814
:1017800000F05EFD2068C06940F008002168C86173
:101790002068C06920F004002168C8612068C06921
:1017A000296908432168C86118E02946206800F0CB
:1017B00083FD2068C06940F400602168C86120682A
:1017C000C06920F480602168C8612068C069296907
:1017D00040EA01202168C86100E000BF00BF01208D
:1017E00084F83D0000BF002084F83C0000BF00BF2B
:1017F00085E710B504460CB9012010BD94F83D00F2
:1018000028B9002084F83C00204600F00DF80220A2
:1018100084F83D00211D206800F00AFC012084F8B6
:101820003D000020E9E7000008B50168B1F1804FF4
:101830000FD100BF002100910649096841F0010164
:10184000044A11601146096801F00101009100BFCE
:1018500000BF08BD403802407047000070B5044624
:101860000E4601223146206800F04EFC0F492068E8
:10187000884203D00E492068884201D1012000E04F
:10188000002028B12068406C40F400402168486482
:101890002068806800F00705062D05D020680068E4
:1018A00040F0010021680860002070BD0000014088
:1018B0000004014010B504460248844201D100F002
:1018C0004DFD10BDB8210020704700BFFEE70000AD
:1018D00000B587B0142102A8FEF7ACFC00BF0020C1
:1018E00001901E48006840F080001C4908600846CE
:1018F000006800F08000019000BF00BF00BF002022
:1019000001900846006840F0010008600846006841
:1019100000F00100019000BF00BF00BF0020019057
:101920000846006840F0080008600846006800F0BB
:101930000800019000BF00BF00227C210848FFF78B
:101940004BF87C2002900120039004900220059027
:1019500002A90348FEF740FF07B000BD303802403F
:10196000000C024000B589B00020079008901C21AF
:101970006846FEF75FFC4FF080401749086053202F
:10198000486000211448816040F2F311C1600021D9
:1019900001618161FFF72DFF08B1FEF706FF00200E
:1019A0000790089007A90C48FFF772FC08B1FEF7F2
:1019B000FCFE602000900020019002900490042220
:1019C00069460548FFF791FE08B1FEF7EEFE0248B2
:1019D000FFF75CFE09B000BD7821002000B587B09C
:1019E0000020039004900590069001900290154805
:1019F0001549086040F24730486000211248816074
:101A000041F28731C1600021016180218161FFF7CE
:101A100099FC08B1FEF7C9FE4FF48050039003A96A
:101A20000948FFF7E2FC08B1FEF7BFFE0020019075
:101A3000029001A90448FFF72BFC08B1FEF7B5FEA0
:101A400007B000BD000C0040B821002000BFFEE739
:101A500000BFFEE770B500240CE0002506E0002082
:101A6000074901EBC5010855681CC5B2802DF6DB9E
:101A7000601CC4B2082CF0DB00F0D6F870BD00008A
:101A8000F81C002070B50B46CE1701EB5676C6F356
:101A9000C702CE1701EB5676F610A1EBC606F4B2DC
:101AA0000123A340DDB20E4B03EBC0039B5CDB4381
:101AB0000B4E06EBC006B354094B03EBC0039B5C13
:101AC0002B43074E06EBC006B354054B03EBC00394
:101AD0009B5CDB43024E06EBC006B35470BD0000B6
:101AE000F81C002070B50A46CE1701EB5676C6F3F7
:101AF000C703CE1701EB5676F610A1EBC606F4B27B
:101B00000122A240D5B2054A02EBC002D25C2A43B0
:101B1000024E06EBC006F25470BD0000F81C002017
:101B200010B5002220213F48FEF756FFC820FEF7DF
:101B30003FFE012220213B48FEF74EFF0021AE2050
:101B400000F0BCF90021084600F0B8F9002110208F
:101B500000F0B4F90021402000F0B0F9002181200C
:101B600000F0ACF90021CF2000F0A8F90021A1205D
:101B700000F0A4F90021C82000F0A0F90021A6205F
:101B800000F09CF90021A82000F098F900213F20E6
:101B900000F094F90021D32000F090F900210846CC
:101BA00000F08CF90021D52000F088F90021802078
:101BB00000F084F90021D92000F080F90021F12003
:101BC00000F07CF90021DA2000F078F900211220E1
:101BD00000F074F90021DB2000F070F900214020B2
:101BE00000F06CF90021202000F068F900210220AB
:101BF00000F064F900218D2000F060F9002114202C
:101C000000F05CF90021A42000F058F90021A62082
:101C100000F054F90021AF2000F050F9FFF71AFF4F
:101C200010BD0000000C024070B500241CE004F15F
:101C3000B001C8B2002100F041F90021084600F0CF
:101C40003DF90021102000F039F9002508E008498D
:101C500001EBC501085D012100F030F9681CC5B237
:101C6000802DF4DB601CC4B2082CE0DB70BD0000EA
:101C7000F81C00202DE9FF4F81B080460E461C461F
:101C800000962046E31704EB5373DB1021464FEA1E
:101C9000E47C04EB5C7C4FEAEC0CA4EBCC0CBCF1D8
:101CA000000F02D04FF0010C01E04FF0000C634434
:101CB000224604EBD27C4FEA6C0C03FB0CF303F0DE
:101CC000FF0B03982038C7B2002547E00C2C07D142
:101CD00007EB4700234901EB800010F805A014E052
:101CE000102C05D1204800EB071010F805A00CE0DF
:101CF000182C07D107EBC7001C4901EB800010F836
:101D000005A002E005B0BDE8F08F4FF000091FE02C
:101D10000AF0800020B131464046FFF7E3FE03E0C1
:101D200031464046FFF7AEFE4FEA4A604FEA106A7E
:101D3000701CC6B20098301AA04205D1009E08F16E
:101D4000010000F0FF0806E009F1010000F0FF09C2
:101D5000B9F1080FDCDB00BF681CC5B25D45B5DB1F
:101D600000BFCFE7702E0008E4320008D438000826
:101D70002DE9FF4F0746884691461C464FF0000B61
:101D80000297CDF804802046E11704EB5171C1F3AE
:101D9000C701009160E009FB04F0C11700EB51712D
:101DA0000BEBE101CEB20BF1010000F0FF0B0025BF
:101DB00050E0102C05D12C4800EB0610405D03903C
:101DC0001BE0182C07D106EBC600284901EBC00028
:101DD000405D039011E0202C05D1254800EBC61092
:101DE000405D039009E0402C05D1224800EB4620DD
:101DF000405D039001E0BDE8FF8F4FF0000A17E05F
:101E0000039800F0010020B141463846FFF76AFE12
:101E100003E041463846FFF735FE03984010039033
:101E200008F1010000F0FF080AF1010000F0FF0ACC
:101E3000BAF1080FE4DB781CC7B20298381AA04246
:101E400004D1029F01980830C0B20190DDF80480EF
:101E5000681CC5B2A542ACDB0098411EC9B2009116
:101E6000002898D100BFC6E704080020040A00201B
:101E7000DC0A0020DC0C0020F0B506460F461446B4
:101E80001D4613E022782B4639463046FFF7F2FE16
:101E9000284605EBD07106EB6101CEB2C5F180009A
:101EA000B04202DA0026B81CC7B2641C2078202891
:101EB00002DB20787E28E5DDF0BD000070B5044629
:101EC0000E462EB1012210211C48FEF785FD04E0CC
:101ED000002210211948FEF77FFD002240211748FB
:101EE000FEF77AFD00251BE0002208211348FEF7CB
:101EF00073FD04F0800028B1012204210F48FEF791
:101F00006BFD04E0002204210C48FEF765FD012270
:101F100008210A48FEF760FD6006040E681CC5B281
:101F2000082DE1DB012240210448FEF755FD012286
:101F300010210248FEF750FD70BD0000000C024069
:101F40007047704710B5FEF753FD10BD00B593B054
:101F5000302107A8FEF76EF9142102A8FEF76AF9EE
:101F600000BF002001902548006840F080502349C0
:101F700008600846006800F08050019000BF00BF74
:101F800000BF002001901E48006840F480401C49BA
:101F900008600846006800F48040019000BF00BF60
:101FA0000220079001200A9010200B9002200D9033
:101FB00000210E9108210F91A82110910221119169
:101FC0000421129107A8FEF703FF08B1FEF7EDFB0D
:101FD0000F20029002200390002004904FF4A050A4
:101FE00005904FF480500690052102A8FEF7D6FD1B
:101FF00008B1FEF7DAFB13B000BD00004038024024
:10200000007000400548006840F470000349086013
:102010004FF00060014980390860704788ED00E0AA
:1020200010B50248FFF766FA10BD0000B821002085
:1020300010B50268294B98420ED0B0F1804F0BD0FA
:10204000274B984208D0274B984205D0264B984200
:1020500002D0264B984203D122F070024B681A43FB
:102060001E4B984220D0B0F1804F1DD01C4B98429F
:102070001AD01C4B984217D01B4B984214D01B4BC4
:10208000984211D01A4B98420ED01A4B98420BD05E
:10209000194B984208D0194B984205D0184B9842DA
:1020A00002D0184B984203D122F44072CB681A43F5
:1020B00022F080034C6943EA040202608B68C36229
:1020C0000B688362054B984202D0084B984201D1BD
:1020D0000B6903630123436110BD00000000014050
:1020E0000004004000080040000C004000040140D3
:1020F00000400140004401400048014000180040F9
:10210000001C00400020004030B501F01F050124F4
:1021100004FA05F3046A9C430462046A01F01F0593
:1021200002FA05F52C43046230BD30B50C468168D7
:1021300021F47F4142EA032525432943816030BDD4
:102140000A46816821F0700142F00703194381605B
:102150007047000030B5056A25F001050562026A86
:102160004368846924F0700424F003040D682C4350
:1021700022F002028D682A43104DA84200D103E0EC
:102180000F4DA84206D100BF22F00802CD682A43B5
:1021900022F00402094DA84202D0094DA84207D1FD
:1021A00023F4807323F400734D692B438D692B4313
:1021B000436084614D684563026230BD00000140A8
:1021C0000004014030B5056A25F010050562026A79
:1021D0004368846924F4E04424F440740D6844EABC
:1021E000052422F020028D6842EA0512124DA84211
:1021F00000D103E0114DA84207D100BF22F08002B8
:10220000CD6842EA051222F040020B4DA84202D0EE
:102210000A4DA84209D123F4806323F400634D6979
:1022200043EA85038D6943EA8503436084614D6811
:102230008563026230BD00000000014000040140DF
:1022400030B5056A25F480750562026A4368C46981
:1022500024F0700424F003040D682C4322F400726F
:102260008D6842EA0522124DA84200D103E0114DCB
:10227000A84207D100BF22F40062CD6842EA0522DD
:1022800022F480620A4DA84202D00A4DA84209D128
:1022900023F4805323F400534D6943EA05138D69F9
:1022A00043EA05134360C4614D68C563026230BDF3
:1022B000000001400004014030B5056A25F4805556
:1022C0000562036A4468C26922F4E04222F4407263
:1022D0000D6842EA052223F400538D6843EA053372
:1022E000084DA84202D0084DA84204D124F48044ED
:1022F0004D6944EA85144460C2614D680564036217
:1023000030BD0000000001400004014030B50B4624
:102310001446026A056A25F001050562816921F00B
:10232000F00141EA041122F00A021A4381610262BB
:1023300030BD30B50B461446056A25F01005056220
:102340008169026A21F4704141EA043122F0A0025D
:1023500042EA03128161026230BD000010B52DED2A
:10236000028B2C480068FDF770FF41EC180B53EC12
:10237000182B29A12A4800F05DF8102329A200217A
:102380000846FFF779FD1023042200211820FFF7EB
:10239000EFFC1023052200212820FFF7E9FC102381
:1023A000062200213820FFF7E3FC0C231EA20421A3
:1023B0005A20FFF761FD10230B2220210020FFF798
:1023C000D7FC10230C2220211846FFF7D1FC102344
:1023D000042220210846FFF7CBFC10230D222021E8
:1023E0003220FFF7C5FC10230E2220214220FFF7E8
:1023F000BFFC10230F2220215220FFF7B9FC0C2331
:10240000074A22216820FFF737FDFFF70DFCBDECDE
:10241000028B10BD00080020252E3266000000004F
:10242000EC1C002050574D00324B485A0000000071
:1024300000BFFEE70FB4084B10B504A902AA039829
:1024400000F0FAF8044602A9002000F078FC2046CB
:1024500010BC5DF814FB00003F2D00080248006826
:10246000C0F30220704700000CED00E010B500281A
:1024700004DB0A07130E054A135406E00A07140E7C
:10248000034A00F00F031B1FD45410BD00E400E00A
:1024900018ED00E002E008C8121F08C1002AFAD1B6
:1024A00070477047002001E001C1121F002AFBD1D4
:1024B000704700002DE9FF5F82B00021DDE90430A4
:1024C000020DDDF840B0034318D044F61050A2F2DC
:1024D000FF3242431514119801281FD0A5EB0B00C1
:1024E000401C5FEA000A4FF000064E4FDFF83891BB
:1024F000B046504615D5CAF1000413E011980124E6
:102500004AA3012801D16FEA0B010298119AC0E990
:102510000031C0E9024206B0BDE8F09FCBF10000F7
:10252000DFE704460021404A491842EB0450CDE958
:10253000001012E0E00707D032463B4640464946CD
:10254000FDF772FF8046894632463B4610461946E3
:10255000FDF76AFF06460F466410002CEAD1DDE95C
:102560000401DDE90023BAF1000F06DAFDF75CFF94
:1025700042464B46FDF758FF05E0FDF7C7FF4246D0
:102580004B46FDF7C3FF04460E460022284BFEF7DC
:1025900045F803D84FF0FF30014607E00022254BF5
:1025A00020463146FDF799FEFEF71FF8102409E09A
:1025B000002C0ADB0A220023FDF704FE039B3032C5
:1025C0001A55641E50EA0102F2D1641C039AC4F148
:1025D00011031444119A012A03D0012208430DD19A
:1025E0000AE0084304D000204FF0110B119072E76D
:1025F000A3EB0B056D1E0DE05B4504DD4FF0000203
:1026000005F1010504E003DA4FF00002A5F1010530
:10261000002AECD002981199C0E90231C0E90045C6
:1026200079E70000000014400000F03F3000000097
:102630000000F0430000E03F2DE9FF4F95B09A46BF
:10264000884606460025EEE1252877D10024274656
:10265000F94A0121039400E0044316F8013F203BAE
:1026600001FA03F01042F7D130782A2811D06FF028
:102670002F033078A0F13002092A16D8039A44F0CB
:10268000020402EB820203EB42021044761C039028
:10269000EFE758F8042B0392002A03DA504244F47F
:1026A0000054039044F00204761C30782E2816D192
:1026B00016F8010F44F004042A280DD06FF02F0201
:1026C0003078A0F13003092B09D807EB870302EB20
:1026D0004303C718761CF3E758F8047B761C307860
:1026E0006C280FD006DC4C2817D068280DD06A283B
:1026F00014D104E0742810D07A280FD10DE044F4EE
:1027000000140AE044F4801401E044F440147278A8
:10271000824202D104F58014761C761C307866283B
:102720000BD013DC582877D009DC002875D0452859
:10273000F6D04628F4D047281AD193E118E0632850
:1027400035D0642879D0652812D18BE1702873D0F8
:1027500008DC6728F1D069286FD06E280DD06F286B
:1027600006D1ACE073282CD0752874D0782853D0CB
:102770005246179990476D1C54E1C4F30250022849
:1027800009D003280DD0D8F8001004280DD00D6012
:1027900008F1040846E1D8F80010EA17C1E9005230
:1027A000F6E7D8F800100D80F2E70D70F0E718F8A2
:1027B000041B8DF8001000208DF80100EB4601206D
:1027C00003E058F804BB4FF0FF3061074FF0000101
:1027D00002D40DE009F101018946B9420FDA8145C1
:1027E000F8DB1BF809100029F4D108E009F1010118
:1027F00089468142FADB1BF809100029F6D10398BB
:102800005346A0EB090721463846179A00F080FA94
:10281000284400EB090507E044E008E10DE01BF85F
:10282000010B524617999047B9F10109F7D2534667
:1028300021463846179AF2E039E00A21C4F30252E1
:102840004FF0000B0091022A06D058F8040BC11774
:10285000032A09D00AE023E008F1070020F007026C
:10286000F2E80201904605E000B2C117042A01D146
:1028700040B2C117002906DA0A460021404261EB46
:1028800002012D2202E0220504D52B228DF804201E
:10289000012203E0E20701D02022F7E7914657E04A
:1028A0000A2100E010214FF0000B00910BE01021F5
:1028B0004FF0000B44F004040827009103E00820C7
:1028C0004FF0000B0090C4F30252022A05D058F8D2
:1028D000040B0021032A08D008E008F1070020F0CB
:1028E0000702F2E80201904603E080B2042A00D118
:1028F000C0B24FF0000922072AD53278702A07D0DB
:10290000DDF800C08CF0100C5CEA0B0C05D00EE07A
:1029100040228DF80420012208E050EA010306D08D
:1029200030238DF804308DF8052002229146009B5B
:1029300083F0080353EA0B030AD150EA010201D1E4
:10294000620705D530228DF804204FF001097F1E63
:102950003278582A04D039A20C920CAA02920BE0C9
:102960003BA2F9E75B46009AFDF72CFC0C9B9B5CB5
:10297000029A521E0292137050EA0102F2D102989A
:1029800004A9081A00F1200B600702D524F4803452
:1029900000E001275F4502DDA7EB0B0000E000200F
:1029A00000EB0B01009003984944401A0390E003A8
:1029B00006D453462146179A039800F0A9F9054416
:1029C000002706E001A85246C05D179990476D1C8C
:1029D0007F1C4F45F6DBE0030CD553462146179A82
:1029E000039800F095F9054404E030205246179909
:1029F00090476D1C0099481E00900029F5DC08E006
:102A00000298029952460078491C02911799904702
:102A10006D1CBBF10001ABF1010BF1DC5BE100F0DF
:102A200065F90544761C307800287FF40DAE19B0A6
:102A30002846BDE8F08F000009280100303132330C
:102A400034353637383961626364656600000000EA
:102A500030313233343536373839414243444546D4
:102A600000000000600700D4062708F1070020F0EE
:102A70000700F0E80223804603F0004C5FEA0C00F8
:102A800001D097A009E0200501D596A005E0E00758
:102A900001D095A001E0AFF24C001390307823F004
:102AA000004365280CD006DC452809D046281DD0F7
:102AB00047287FD13BE0662818D067287AD136E0D6
:102AC0000021112F01DB112000E0781CCDE900016D
:102AD00004A90CA8FFF7EEFCDDE90D010C9A4FF0FC
:102AE000000B07F10109109200914EE04FF00040F9
:102AF0000097CDE9011004A90CA8FFF7DBFCDDE984
:102B00000D020C9B0F994FF0000B91461093009211
:102B100011B9791C00EB0109B7EB090003D4C0F12E
:102B2000FF3B07F10109A9EB0700019042E0012FEB
:102B300000DA01270021112F01DD112000E03846C5
:102B4000CDE9000104A90CA8FFF7B4FCDDE90D01F3
:102B50000C9A00914FF0000BB946109221070FD448
:102B6000009A4A4503DA914601E0A9F10109B9F159
:102B7000010F05DD109AA9F10101515C3029F4D053
:102B8000B84202DA10F1040F03DA0121CDE9011095
:102B900010E0002803DC8344A9EB000102E0411CA3
:102BA000494500DD8946A0EB0B00401C01904FF029
:102BB00000400290200705D40198484502DB4FF001
:102BC000FF30019000208DF84B0002980DF14B076B
:102BD000B0F1004F25D002200C902B200D900298D0
:102BE00000280CDA404202902D200D9007E00A21C7
:102BF0000298FDF73DFB3031029007F8011D0C995A
:102C0000481E0C900029F2DC02980028EFD1791EB2
:102C10000D980870307800F0200040F0450007F86B
:102C2000020D11A8C01BC01D02901398007800B1BE
:102C3000012000EB0901019801EBE07102980144C9
:102C40000398401A401E0390E00306D453462146E1
:102C5000179A039800F05CF805441398007818B1AF
:102C60005246179990476D1CE00323D553462146E1
:102C7000179A039800F04CF805441BE0BBF1000FD5
:102C800007DB0098584504DD1098179910F80B00E1
:102C900001E0179930205246904701980BF1010B43
:102CA000401E05F10105019004D12E2052461799CE
:102CB00090476D1CB9F10001A9F10109DEDC05E0C6
:102CC00017F8010B5246179990476D1C0299481E40
:102CD00002900029F4DC53462146179A03989EE699
:102CE0002D0000002B000000200000002DE9F04125
:102CF000044600251E461746880404D405E03946DC
:102D00002020B0476D1C641EF9D52846BDE8F0812F
:102D10002DE9F041044600251E469046C80301D522
:102D2000302700E02027880404D505E041463846D6
:102D3000B0476D1C641EF9D52846BDE8F0810A68CD
:102D4000531C0B6010707047FDF75EFEFFF7FEF836
:102D5000FEF7BEFDFEF706FEFEF740FEFEF7E0FEC4
:102D60003B48FEF72DFB04213A48FEF777FD6DE066
:102D70009FED390A394880ED000A90ED000ADFED39
:102D8000380A20EE200ABCEEC00A10EE100A4FF0FE
:102D90008041886340F6B830FDF70AFD9FED310AA7
:102DA0002E4880ED000A90ED000ADFED2D0A20EE9E
:102DB000200ABCEEC00A10EE100A4FF08041886372
:102DC0004FF4FA60FDF7F4FC9FED270A234880EDED
:102DD000000A90ED000ADFED220A20EE200ABCEE88
:102DE000C00A10EE100A4FF08041886340F6B830F8
:102DF000FDF7DEFC9FED1D0A184880ED000A90EDFE
:102E0000000ADFED170A20EE200ABCEEC00A10EE21
:102E1000100A4FF0804188634FF4FA60FDF7C8FC58
:102E2000B6EE000A0D4880ED000A90ED000ADFEDD5
:102E30000C0A20EE200ABCEEC00A10EE100A4FF079
:102E40008041886340F6B830FDF7B2FC90E700009F
:102E5000B821002078210020CDCCCC3D00080020F6
:102E60000000FA43CDCCCC3E3333333F6666663F39
:102E70000000000000000000000000000000000052
:102E80003F40000000000000000030004000300023
:102E90004000000009000BC03D000BC03D000900D0
:102EA00018C024407FE0224031800000180024C078
:102EB0001B000D803240018003801C4027401C8095
:102EC000074000401000600000000000000000000B
:102ED0000000000000001F80204040200000402033
:102EE00020401F8000000000090006001F8006002F
:102EF00009000000040004003F80040004000000FA
:102F00000010006000000000000000000400040049
:102F10000400040004000000000000400000000065
:102F200000000000002001C0060038004000000042
:102F30001F802040204020401F80000000001040E3
:102F40003FC000400000000018C021402240244043
:102F50001840000010802040244024401B800000C6
:102F600002000D0011003FC0014000003C802440E1
:102F700024402440238000001F802440244034400B
:102F8000038000003000200027C03800200000002F
:102F90001B802440244024401B8000001C0022C0D1
:102FA000224022401F800000000000000840000076
:102FB00000000000000000000460000000000000AD
:102FC000000004000A0011002080404009000900B0
:102FD00009000900090000000000404020801100A5
:102FE0000A000400180020002340240018000000FC
:102FF0001F802040274029401F400000004007C09C
:1030000039000F0001C0004020403FC02440244050
:103010001B8000001F8020402040204030800000A6
:1030200020403FC0204020401F80000020403FC083
:1030300024402E4030C0000020403FC024402E00DD
:10304000300000000F00108020402240338002003A
:1030500020403FC0040004003FC0204020402040EA
:103060003FC02040204000000060202020203FC0C2
:103070002000200020403FC024400B0030C02040F2
:1030800020403FC020400040004000C03FC03C0006
:1030900003C03C003FC0000020403FC00C40230064
:1030A0003FC020001F802040204020401F800000A3
:1030B00020403FC024402400180000001F80214011
:1030C000214020E01FA0000020403FC024402600F7
:1030D00019C0004018C02440244022403180000024
:1030E000300020403FC020403000000020003F80E2
:1030F000004000403F80200020003E0001C007004B
:1031000038002000380007C03C0007C0380000002D
:10311000204039C0060039C020400000200038405F
:1031200007C0384020000000304021C02640384011
:1031300020C00000000000007FE040204020000090
:10314000000070000C0003800040000000004020E0
:1031500040207FE000000000000020004000200030
:1031600000000000001000100010001000100010FF
:10317000000000004000000000000000000002808D
:103180000540054003C0004020003FC0044004400B
:10319000038000000000038004400440064000005B
:1031A00000000380044024403FC000400000038032
:1031B0000540054003400000000004401FC02440BB
:1031C00024402000000002E0055005500650042075
:1031D00020403FC00440040003C000400000044001
:1031E00027C000400000000000100010041027E07D
:1031F0000000000020403FC00140070004C0044020
:10320000204020403FC000400040000007C00400B4
:1032100007C0040003C00000044007C004400400CD
:1032200003C000400000038004400440038000000D
:10323000041007F0045004400380000000000380E5
:103240000440045007F00010044007C0024004008E
:1032500004000000000006400540054004C00000D6
:10326000000004001F8004400040000004000780AC
:103270000040044007C000400400070004C0018073
:1032800006000400060001C0070001C0060000009F
:10329000044006C0010006C00440000004100710EE
:1032A00004E00180060004000000044005C0064060
:1032B000044000000000000004007BE0402000000B
:1032C000000000000000FFF00000000000004020AF
:1032D0007BE004000000000040008000400020006F
:1032E000200040000000000000000000000000007E
:1032F000000000000000000000001FCC000C0000D7
:1033000000000000000008003000600008003000ED
:1033100060000000022003FC1E20022003FC1E208F
:103320000220000000000E1811043FFF10840C78EA
:10333000000000000F0010840F3800C007781884C8
:103340000078000000780F8410C411240E9800E467
:103350000084000808006800700000000000000001
:103360000000000000000000000007E01818200422
:1033700040020000000040022004181807E000008E
:10338000000000000240024001800FF00180024076
:10339000024000000080008000800FF80080008064
:1033A000008000000001000D000E00000000000081
:1033B000000000000000008000800080008000808D
:1033C000008000800000000C000C000000000000E5
:1033D00000000000000000060018006001800600E8
:1033E00018002000000007F0080810041004080866
:1033F00007F000000000080408041FFC000400049B
:103400000000000000000E0C101410241044118461
:103410000E0C000000000C18100411041104128896
:103420000C700000000000E00320042408241FFCAE
:103430000024000000001F9810841104110410885B
:1034400010700000000007F00888110411041888AB
:103450000070000000001C00100010FC13001C0095
:103460001000000000000E38114410841084114434
:103470000E38000000000700088C10441044088833
:1034800007F00000000000000000030C030C000027
:103490000000000000000000000101060000000024
:1034A0000000000000000080014002200410080815
:1034B000100400000220022002200220022002202C
:1034C000022000000000100408080410022001403F
:1034D0000080000000000E001200100C106C108024
:1034E0000F00000003E00C1813E4142417C408288C
:1034F00007D000000004003C03C41C40074000E467
:10350000001C000410041FFC1104110411040E8897
:103510000070000003E00C181004100410041008E0
:103520001C10000010041FFC1004100410040808F4
:1035300007F0000010041FFC1104110417C410044C
:103540000818000010041FFC1104110017C010001F
:103550000800000003E00C181004100410441C784C
:103560000040000010041FFC1084008000801084C4
:103570001FFC10040000100410041FFC10041004B1
:103580000000000000030001100110011FFE1000E8
:103590001000000010041FFC110403801464181CA8
:1035A0001004000010041FFC1004000400040004B8
:1035B000000C000010041FFC1F0000FC1F001FFC7B
:1035C0001004000010041FFC0C04030000E010189D
:1035D0001FFC100007F0080810041004100408086D
:1035E00007F0000010041FFC108410801080108071
:1035F0000F00000007F0081810241024101C080AFF
:1036000007F2000010041FFC1104110011C011305A
:103610000E0C000400000E1C1104108410841044D1
:103620001C3800001800100010041FFC10041000CB
:103630001800000010001FF810040004000410041B
:103640001FF8100010001E0011E0001C0070138015
:103650001C0010001FC0103C00E01F0000E0103CE8
:103660001FC000001004180C163401C001C016342D
:10367000180C100410001C00130400FC13041C00A0
:10368000100000000804101C1064108413041C04B3
:10369000101800000000000000007FFE4002400201
:1036A00040020000000030000C0003800060001C9D
:1036B0000003000000004002400240027FFE0000C4
:1036C000000000000000000020004000400040001A
:1036D00020000000000100010001000100010001C4
:1036E0000001000100004000400020000000000038
:1036F000000000000000009801240144014401443E
:1037000000FC000410001FFC008801040104008874
:103710000070000000000070008801040104010432
:1037200000880000000000700088010401041108F6
:103730001FFC0004000000F801440144014401445E
:1037400000C800000000010401040FFC1104110472
:1037500011001800000000D601290129012901C922
:103760000106000010041FFC008401000100010498
:1037700000FC000400000104190419FC000400040A
:10378000000000000000000300010101190119FE02
:103790000000000010041FFC0024004001B4010CD4
:1037A000010400000000100410041FFC00040004C9
:1037B00000000000010401FC0104010001FC0104FF
:1037C000010000FC010401FC00840100010001046F
:1037D00000FC0004000000F80104010401040104DD
:1037E00000F80000010101FF0085010401040088C8
:1037F0000070000000000070008801040104010551
:1038000001FF00010104010401FC00840104010026
:1038100001800000000000CC0124012401240124C7
:103820000198000000000100010007F801040104F4
:1038300000000000010001F8000400040004010879
:1038400001FC0004010001800170000C0010016007
:103850000180010001F0010C003001C00030010CBA
:1038600001F0010000000104018C00740170018C62
:1038700001040000010101810171000E00180160C6
:103880000180010000000184010C01340144018425
:10389000010C0000000000000000000001003EFCE0
:1038A000400240020000000000000000FFFF000096
:1038B000000000000000400240023EFC0100000049
:1038C0000000000000006000800080004000400018
:1038D00020002000000000000000000000000000A8
:1038E00000000000000000000000000000000000D8
:1038F00000000000000000000000000000000000C8
:10390000000000000000000F80380FFE380F8038E4
:1039100000000000000000000000000000000000A7
:1039200000000100000600000C000038000031001B
:10393000000600000C00003800003000000000000D
:103940000000000061800067F807F98000618000D6
:1039500061800061800061800067F807F980006184
:103960008000000000000000000001C0E003E0F063
:103970000630080418081FFFFE040E080787F0032E
:1039800081E000000000000001F000060C000404CB
:1039900008060C7001F9C0000E00003BE000EC18B6
:1039A000070808040C180003E00000000001E00014
:1039B00007F003F818041C0804170807E1D003C037
:1039C000E00023B0003C08002008000010000000C8
:1039D0000000000100003100003200001C00000067
:1039E00000000000000000000000000000000000D7
:1039F00000000000000000000000000000000000C7
:103A0000000000007F0001FFC00780F00C001810CC
:103A1000000420000200000000000020000210004E
:103A2000040C00180780F001FFC0007F00000000B8
:103A30000000000000000000000000000000000086
:103A40004200006600006600003C0000180003FF12
:103A5000C0001800003C0000660000660000420044
:103A60000000000008000008000008000008000036
:103A7000080001FFC000080000080000080000085E
:103A800000000800000000000001000031000032CA
:103A900000001C000000000000000000000000000A
:103AA0000000000000000000000000000800000806
:103AB00000000800000800000800000800000800DE
:103AC00000080000080000080000000000000000DE
:103AD000000000003800003800003800000000003E
:103AE00000000000000000000000000000000000D6
:103AF00000000000000600001C00007000018000B3
:103B00000E0000380000C0000700001C000030005C
:103B100000000000000000007F8001FFE0038070D3
:103B2000060018040008040008060018038070014D
:103B3000FFE0007F800000000000000000000100A6
:103B40000801000801000803FFF807FFF80000085B
:103B50000000080000080000000000000000000154
:103B6000C03802C058040098040118040218040464
:103B700018061C1803F81801E0F800000000000007
:103B800000000001C0E003C0F004000804080804BD
:103B9000080806180803F41801E7F00001E0000027
:103BA00000000000000000000300000D00001100F4
:103BB00000610000810803010807FFF80FFFF8000B
:103BC00001080001080000000000000000E007FC00
:103BD000D00608080610080610080610080618384F
:103BE000060FF00607C00000000000000000000003
:103BF0003F8001FFE003843002081804100804101D
:103C000008041008071810030FF00007C000000098
:103C100000000000000003C00007000006000006CE
:103C200000F80607F806180006E000070000060086
:103C30000000000000000001E1E003F7F00634108E
:103C4000041808041808040C08040C0806161803C5
:103C5000F3F001C1E000000000000000F80003FCE8
:103C600030030638040208040208040208040410A1
:103C70000308F001FFC0007F00000000000000000A
:103C8000000000000000000000000000703800701C
:103C90003800703800000000000000000000000044
:103CA0000000000000000000000000000000000014
:103CB000301A00301C00000000000000000000006E
:103CC00000000000000000000000000800001400D8
:103CD000002200004100008080010040020020041A
:103CE0000010080008000000000000002100002172
:103CF000000021000021000021000021000021001F
:103D00000021000021000021000000000000000050
:103D1000000008000804001002002001004000809C
:103D20008000410000220000140000080000000094
:103D300000000003C00004C00004000008003808B0
:103D40000F380808380810000C300007E00003C0E6
:103D500000000000000000003F8000FFE0038070D2
:103D6000020F1006708804C088048308047F88024C
:103D7000C09003012000FE40000008000018000170
:103D8000F8003E0801C20007020007E20000FE0042
:103D9000001FC80001F800003800000804000807F0
:103DA000FFF807FFF80408080408080408080408D6
:103DB0000806180803F41801E7F00001E00000000D
:103DC000000000003F8001FFE00380700200180443
:103DD0000008040008040008040010060020078002
:103DE000C000000004000807FFF807FFF8040008FF
:103DF0000400080400080400180200100380700189
:103E0000FFE0007F8000000004000807FFF807FFC4
:103E1000F8040808040808040808040808043E0810
:103E200004000806001801006000000004000807F4
:103E3000FFF807FFF8040808040800040800040855
:103E400000043E00060000060000018000000000A3
:103E5000000000003F8001FFE003807006001804AE
:103E600000080402080402080203F00783F00002BD
:103E70000000020004000807FFF807FFF804080824
:103E800000080000080000080000080004080807F7
:103E9000FFF807FFF804000800000000000004001D
:103EA0000804000804000807FFF807FFF8040008EA
:103EB00004000804000800000000000000000000EA
:103EC00000060000070000010400010400010400D6
:103ED0000307FFFE07FFFC040000040000040000CD
:103EE00004000807FFF807FFF8040C08001800009A
:103EF0003E0004C7800503C80600F804003804002B
:103F00001800000804000807FFF807FFF80400087D
:103F10000000080000080000080000080000080079
:103F2000001800006000000004000807FFF8078088
:103F30000807FC00007FC00003F80007C0007800FD
:103F400007800807FFF807FFF804000804000807C7
:103F5000FFF807000803C00000E000003800001E62
:103F6000000007000001C00400F007FFF804000093
:103F7000000000007F8001FFE0038070060018044D
:103F8000000804000806001803003001FFE0007F6D
:103F90008000000004000807FFF807FFF804040889
:103FA000040400040400040400040400060C0003DC
:103FB000F80001F000000000000000007F8001FF19
:103FC000E00380700600880400880400C806003CF6
:103FD00003003E01FFE6007F8400000004000807A4
:103FE000FFF807FFF8040808040800040C00040F99
:103FF00000040BC00610F003F03801E008000008D0
:1040000000000001E0F803F0300630100418080446
:104010001808040C08040C080206180207F00781AF
:10402000E000000001800006000004000004000021
:1040300004000807FFF807FFF80400080400000464
:10404000000006000001800004000007FFE007FFF9
:10405000F004001800000800000800000800000834
:1040600000000804001007FFE00400000400000640
:10407000000007E00007FE00041FE00001F8000058
:10408000380001E0043E0007C00006000004000004
:1040900004000007E00007FFC0041FF80007C00786
:1040A000F80007FF80043FF80007C004F80007008D
:1040B0000004000000000004000806001807C07893
:1040C00005F1C8003E00001F800463E80780F80681
:1040D000001804000800000004000006000007802B
:1040E0000007E008047C08001FF80007F800180823
:1040F00004E00807000006000004000000000001C2
:1041000000080600380400F80403E8040F08047CE3
:104110000805F00807C00807001804006000000048
:104120000000000000000000000000000000003F50
:10413000FFFE2000022000022000022000022000DA
:10414000020000000000000000000800000700005E
:1041500000C0000038000006000001C00000300070
:10416000000E000001000000000000000000200020
:10417000022000022000022000022000023FFFFE79
:10418000000000000000000000000000000000002F
:1041900000000000000800001000003000002000B7
:1041A00000300000100000080000000000000000C7
:1041B00000000100000100000100000100000100FA
:1041C00000010000010000010000010000010000EA
:1041D00001000001000000000000000000200000BD
:1041E000200000100000100000000000000000008F
:1041F00000000000000000000000000000F00019B6
:10420000F8001B18002208002608002408002410CB
:10421000003FF8001FF8000008000018000000042C
:10422000000007FFF80FFFF000181800100800202A
:1042300008002008003018001FF0000FC000000028
:104240000000000007C0001FF00018300020080028
:104250002008002008003C08001C1000006000003E
:10426000000000000000000007C0001FF000381828
:1042700000200800200800200804101007FFF80F95
:10428000FFF0000010000000000000000000000728
:10429000C0001FF00012300022180022080022087F
:1042A000003208001E10000E200000000000000078
:1042B000200000200800200801FFF803FFF8062076
:1042C0000804200804200807200003000000000064
:1042D00000000000000E000E6E001FF30031B10060
:1042E00020B10020B1003191001F13002E1E0020CC
:1042F0000E00300000000004000807FFF80FFFF870
:10430000001008002000002000002008003FF800F6
:104310001FF800000800000000000000000000205E
:1043200008002008002008063FF8063FF8000008B3
:10433000000008000008000000000000000000006D
:104340000000000003000003002001002001002005
:1043500003063FFE063FFC000000000000000000D6
:1043600000000004000807FFF80FFFF800018800B4
:104370000300002FC00038F800203800200800009B
:10438000080000000000000000000400080400080D
:1043900004000807FFF80FFFF800000800000800FD
:1043A0000008000000000000002008003FF8003F67
:1043B000F8001008002000003FF8003FF800100847
:1043C000002000003FF8003FF80000080000000057
:1043D0002008003FF8003FF80010080010000020FF
:1043E00000002008003FF8001FF80000080000004F
:1043F0000000000007C0000FF00018300030080077
:104400002008002008003008001830000FF00007D6
:10441000C0000000000000002001003FFF003FFF3F
:10442000001011002009002008002008003038008A
:104430001FF0000FC00000000000000007C0001FB8
:10444000F000381800200800200800200900101192
:10445000001FFF003FFF00000100000000200800D7
:104460002008002008003FF8003FF800080800106E
:10447000080020080020000030000030000000008C
:10448000000000000000000C78001E180033080037
:1044900023080021080021880021980030F000380E
:1044A000600000000000000020000020000020004C
:1044B00000FFF003FFF8002008002008002008009B
:1044C0000030000000000000000000002000003F5D
:1044D000F0007FF80000180000080000080020101D
:1044E000003FF8007FF00000100000000000000016
:1044F0002000003000003C00003F800023F000005E
:1045000078000070002380003C0000300000200094
:10451000002000003C00003FE00023F80000E00025
:104520002700003E00003FE00021F80001E0003ECF
:10453000000020000000000020080020080038389B
:10454000003E680027800003C8002CF800383800BF
:1045500020180020080000000000000020000030AB
:1045600003003C01003F830023EC00007000238027
:10457000003C0000200000200000000000000000BF
:1045800000000038080020380020F80023E8002F41
:1045900088003E0800380800201800007000000065
:1045A000000000000000000000000000000000000B
:1045B00008000014001FF7FC300006200002000075
:1045C00000000000000000000000000000000000EB
:1045D000000000000000FFFFFF00000000000000DE
:1045E00000000000000000000000000000002000AB
:1045F000023000061FF7FC00140000080000000055
:104600000000000000000000000000000000001892
:10461000000060000040000040000020000010008A
:10462000000800000400000400000C00001000005E
:104630000000000000000000010203040607080952
:10464000000000000102030468460008000000208A
:10465000EC1C00004E070008D84A0008EC1C0020A3
:104660000C090000A424000811100A03050911FF19
:10467000118905C312E012F072F8073D4428FF11BA
:10468000AA44700B830138448292927401832808F3
:104690007C44FF017D7D7D044905647D01FF9A0115
:1046A00002818A010B013669419949FA0101011D14
:1046B00038083F3F0303F31311011E01F11161811B
:1046C000312D816111F1393B4141072C01C1211E7E
:1046D000AB21C114390139360738D33303033F3FC7
:1046E00023E0E06A7FA81A7FBF4C0618060A21362D
:1046F00040407F40401C1F204001AB201F14113A56
:10470000600E6C300C034601361C07070601780961
:104710000404048444444484071C0484C405790EBE
:1047200009110A79112940034107072610181412AC
:10473000112E0F1010100F0F331F10260810121219
:104740000D22186B0D120A5929590701605A800170
:10475000013D20087F030C300C037F25385454584A
:10476000257C04047805223C40407C17FFAAAAAAB5
:1047700028080A2CFF681E2649494932101D0204E8
:1047800008100F100A03050911FF118905C312E073
:1047900012F072F8073D4428FF11AA44700B830100
:1047A00038448292927401831E7C44FF017D0199FA
:1047B0000559BB9A0102818A010B01366941994969
:1047C000FA010101204BF808011135F81860803515
:1047D000806018F82B202006312BE0101EAB10E073
:1047E00014613937043E8868186A7FA71A7FBE4C67
:1047F0000618060A114640407F40401C1F20400119
:10480000AB201F141162603A602F01441E4020202B
:1048100020C0ED190729EA2A4005115A600E8918AF
:10482000792959070149260C0A0A090C360F08088C
:10483000080F2C080F08151D0809090E0719181C68
:1048400009090918190A5929590701605A800101F3
:104850003D20087F030C300C037F25385454582525
:104860007C04047805223C40407C17FFAAAAAA28B1
:10487000080A2CFF681E2649494932101D02040807
:10488000100F41380D4042445840407F404050484E
:10489000C6107A4401295D180D0808E8292E28E879
:1048A0000808C80C0B06297A1C0949893C2C0F40C2
:1048B000804215404042CC400B40A09E8282829EA6
:1048C000A02020100D3F908840432C1028464180A6
:1048D000802B100C4A3B45C65113140C1E804020FF
:1048E0001E20703910234040180BF80C0B0808F8F4
:1048F00040308F080729AC1A2101295A1D438040F6
:104900003F60100F7C407F484840F2121AD61212C6
:10491000F2022010908E404F201E804F201807106A
:10492000204F80180E14A4442434AD66249404440B
:10493000A414B0180A090808090909FD0909571A39
:1049400009B0180920222C2020E03F200132E01974
:104950008015100806013B01465F11101010101061
:10496000FF9020988888E98E8888A8981C02428148
:104970007D180880844B281028475F10104030EFC6
:10498000242480E49C105454FF547C103010010106
:104990007F21512618274445455F45454422FC1C8C
:1049A0000204183429B5311D3F10088465170C0323
:1049B000081020C015404042CC380B40A09E828297
:1049C000829EA0202021100C908840432C10284665
:1049D0004180801C100C44012B45C6062C44140C4D
:1049E000A03E1E2040407F108340404BFF0801291D
:1049F0000B6A41012AFFC0280C0C4424140405064C
:104A000004041424401971291B2A7F05493F1BFE09
:104A10004001113AFFF941167F202010102A3F165D
:104A20004340784BC080014BFC84080336C0C03B38
:104A3000FF7F544B40FF07043E40FF7F034A7F70D7
:104A40000373FCF86CFFFE02018BFFFF0B0268038F
:104A50006C1F1F04017BFFFF0B02741F038C7F3F41
:104A600007FFF8F8F0F0702001E60214801AFF0149
:104A700009122C09132D01FF01C0EDFFFFFE0601F5
:104A80001AFF01F915391603FF070201D10C12FFB5
:104A9000FFFF1409101509151601FF01C1EDFFFFF5
:104AA000FF18011914091015391601FF01D204125B
:104AB0000201011AFF01011209122A01FF01D71A8E
:104AC000FF0101FF01FD05FF1F1F0F0F01E153242F
:084AD000F43210320100000075
:040000050800018965
:00000001FF
